S00F000061726475696E6F2E7372656323
S11300000C94A4000C94CC000C94CC000C94CC0064
S11300100C94CC000C94CC000C94CC000C94CC002C
S11300200C94CC000C94F1020C94CC000C94CD12E2
S11300300C94CC000C94CC000C94CC000C94CC000C
S11300400C947D080C94CC000C94200B0C94520B53
S11300500C94CC000C94CC000C94CC000C94CC00EC
S11300600C94CC000C94CC0007634236B79BD8A701
S11300701A39685618AEBAAB558C1D3CB7CC5763C9
S1130080BD6DEDFD753EF6177231BF000000803F77
S113009008000000BE922449123EABAAAA2ABECD93
S11300A0CCCC4C3E00000080BEABAAAAAA3E000005
S11300B00000BF000000803F0000000000084178FD
S11300C0D3BB4387D1133D190E3CC3BD4282AD2B34
S11300D03E68EC8276BED98FE1A93E4C80EFFFBE2C
S11300E001C4FF7F3F000000000000000008000280
S11300F001000003040700000000000000000102EA
S113010004081020408001020408102001020408A1
S1130110102004040404040404040202020202027F
S11301200303030303030000000023002600290047
S113013000000000250028002B000000000024001F
S113014027002A006208820B11241FBECFEFD8E0DB
S1130150DEBFCDBF14E0A0E0B1E0E4E5F8E302C007
S113016005900D92A834B107D9F725E0A8E4B4E0CE
S113017001C01D92AA3DB207E1F710E0C4EAD0E045
S113018004C02197FE010E944A19C23AD107C9F757
S11301900E9419050C94281C0C94C9122F923F92AA
S11301A04F925F926F927F928F929F92AF92BF9283
S11301B0CF92DF92EF92FF920F931F93CF93DF932F
S11301C0E42FF52F419050804F925F92E42FF52F4A
S11301D04DB65EB6419250820C94EE00E62FF72F96
S11301E0419050804DBE5EBE5F904F90E62FF72F3A
S11301F041925082DF91CF911F910F91FF90EF9028
S1130200DF90CF90BF90AF909F908F907F906F9032
S11302105F904F903F902F900C940810E62FF72F8B
S1130220419150814DBF5EBF0C941E102F923F929E
S11302304F925F926F927F928F929F92AF92BF92F2
S1130240CF92DF92EF92FF920F931F93CF93DF939E
S1130250E42FF52F419050804F925F92E42FF52FB9
S11302604DB65EB6419250820C940E01E82FF92FE0
S1130270419150814DBF5EBFE62FF72F09940000D6
S113028090E080E008950895CF93DF93EC0160E05F
S11302908E810E94720981E090E00E94C70861E0AB
S11302A08E810E94720981E090E00E94C70860E09C
S11302B08E810E94720984E690E0DF91CF910C94C4
S11302C0C708CF92DF92EF92FF920F931F93CF93C1
S11302D0DF936C017C0187E0E80EF11CD0E0C0E004
S11302E0062F10E0B8010C2E02C0759567950A948C
S11302F0E2F76170F70181917F010E9472092196F2
S1130300C430D10579F7C601DF91CF911F910F91C8
S1130310FF90EF90DF90CF900C944401CF92DF9246
S1130320EF92FF920F931F93CF93DF936C017C01A5
S113033087E0E80EF11CD0E0C0E0062F10E0B80121
S11303400C2E02C0759567950A94E2F76170F70167
S113035081917F010E9472092196C830D10579F7F5
S1130360C601DF91CF911F910F91FF90EF90DF9025
S1130370CF900C9444011F93CF93DF93EC01162F7D
S1130380642F8C810E9472098D818F3F19F060E087
S11303900E9472098F85612F84FF06C0CE01DF9110
S11303A0CF911F910C948E0170E084E07595679550
S11303B08A95E1F7CE010E946101612FCE01DF91A0
S11303C0CF911F910C94610140E00C94BB0161E05A
S11303D00E94E40180ED97E00C94C708443008F0D3
S11303E043E0FC012389421710F04FEF420FFC0158
S11303F0E40FF11D2489620F60680C94E401FC0190
S11304006089262F2460208B6C600C94E4010F9388
S11304101F93CF93DF93EC01423018F08F858860EF
S11304208F874B8B1C8A80E48D8B6E8B605C6F8B0B
S1130430222329F0413019F48F8584608F8761E08D
S11304408C810E9436098D818F3F19F061E00E94F2
S1130450360961E08E810E9436098E0198012C1BB9
S11304603D0B8F8584FD0DC084E090E00F5F1F4F2E
S1130470281739074CF461E0F80186810E94360997
S1130480EDCF88E090E0F2CF80E593EC0E94C708BE
S113049060E08C810E94720960E08E810E94720982
S11304A08D818F3F19F060E00E9472096F8564FDB1
S11304B033C063E0CE010E94610184E991E10E94AE
S11304C0C70863E0CE010E94610184E991E10E94C2
S11304D0C70863E0CE010E94610186E990E00E94B2
S11304E0C70862E0CE010E9461016F856062CE019F
S11304F00E94E40184E0888BCE010E94FF01CE01BA
S11305000E94E70182E0898B66E0CE01DF91CF9102
S11305101F910F910C94E4016062CE010E94E401EA
S113052084E991E10E94C7086F856062CE010E9450
S1130530E40186E990E00E94C7086F856062CE01FD
S11305400E94E401D2CFCF92EF920F93FC01138269
S113055012828FE991E09183808364838FEF858396
S1130560468327830087E186C28613861486158610
S11305701686178620E041E060E1CF010F91EF90ED
S1130580CF900C940702EF92FF920F931F93CF9397
S1130590DF938C017A01677088E0689FB0011124B1
S11305A06064C8010E94E401E701A8E0EA0EF11CBE
S11305B06991D801ED91FC910190F081E02DC80181
S11305C00995CE15DF05A1F7DF91CF911F910F910A
S11305D0FF90EF90089541E00E94BB0181E090E01C
S11305E008951F920F920FB60F9211242F933F93E9
S11305F04F935F936F937F938F939F93AF93BF9327
S1130600EF93FF9380914A048F5F80934A04E091B3
S11306104B0420914A048E2F90E0FC01EE0FFF1F43
S1130620E80FF91FE45BFB4F8181E0914B048213D7
S11306301DC08E2F90E0FC01EE0FFF1FE80FF91F85
S1130640E45BFB4F82818093B200FF91EF91BF91F5
S1130650AF919F918F917F916F915F914F913F9156
S11306602F910F900FBE0F901F90189520914A0460
S11306708E2F90E0FC01EE0FFF1FE80FF91FE45BE3
S1130680FB4F8181821708F7E0914B048E2F90E095
S1130690FC01EE0FFF1FE80FF91FE45BFB4F8081A5
S11306A085FF10C0E0914B048E2F90E0FC01EE0F0B
S11306B0FF1FE80FF91FE45BFB4F808160E08F713F
S11306C00E94720980914B048F5F80934B041092B7
S11306D04A041092B20080914B04882319F180914E
S11306E04B048930F8F4E0914B048E2F90E0FC0128
S11306F0EE0FFF1FE80FF91FE45BFB4F808185FFBE
S1130700A4CFE0914B048E2F90E0FC01EE0FFF1F6D
S1130710E80FF91FE45BFB4F808161E08F710E9459
S1130720720993CF80914B04893008F48ECF1092D4
S11307304B048BCFFC0190914904983028F49F5FBF
S11307409093490490830895108208951F93CF9342
S1130750DF93EC01162F80914804811122C0ECE450
S1130760F4E084E694E03BE027E534832583339684
S11307708E179F07D1F78EE380934D0410924B049C
S113078010924A04109270001092B00082E080939C
S1130790B1001092B20081E087BB80937000809317
S11307A0480488818823A1F061E0812F0E943609E2
S11307B0E8818E2F90E0FC01EE0FFF1FE80FF91F78
S11307C0E45BFB4F1F716081607E612B606260831C
S11307D08881DF91CF911F910895DC01EC918FEF17
S11307E08E0F8830F8F4CB016B3C784014F08AEC1F
S11307F098E08E3E22E0920714F48EEE92E0089781
S1130800AC01440F452F441F550B2E2F30E0F90146
S1130810EE0FFF1FE20FF31FE45BFB4F4183880FD2
S113082080958283089508950F931F93CF93DF9348
S113083000D0CDB7DEB78DB79EB79A8389838091F8
S1130840670490916804892BA9F489819A81909313
S1130850680480936704F89481E29AE0892B11F08C
S11308600E94210A78940F900F90DF91CF911F91ED
S11308700F910895209167043091680489819A81C9
S11308802817390741F3F89487EA91E00E94230579
S113089001E21AE001151105E9F30E94210AFACFD9
S11308A065E070E081E994E00E94A6036EEE72E0D8
S11308B081E994E00E94ED0364E070E080E994E053
S11308C00E94A6036EEE72E080E994E00E94ED03BC
S11308D020E044E064E188E794E00E94070240E0FD
S11308E051E061E088E794E00E94C30288E794E065
S11308F00E94E70160E083E10E94360960E082E142
S11309000E94360961E083E00E94360961E087E0D5
S11309100E94360960E083E00E94720960E087E08B
S11309200E947209E9E6F0E0808182608083E89A9F
S113093026E040E052EC61E070E08BE994E00E9434
S1130940BE0A63EC71E08BE994E00C94FE0B0F9308
S11309501F93CF93DF93EC010E94E90F8C01C43005
S1130960D10509F44CC0C8F4C130D10579F1C330C4
S1130970D105C1F14AE050E0BE018BE994E00E9448
S1130980A90C6FED71E08BE994E00E94EB0B0E94DF
S1130990E90F4AE050E0BC011DC0C730D105C9F1E0
S11309A0CE30D10539F760E172E08BE994E00E9422
S11309B0EB0B06321105C1F564E272E08BE994E0B9
S11309C0DF91CF911F910F910C94FE0B4AE050E000
S11309D061E070E08BE994E0DF91CF911F910F917A
S11309E00C94B00C68ED71E08BE994E00E94EB0B81
S11309F04AE050E0B8018BE994E00E94B00C61EE4B
S1130A0071E08BE994E0DF91CF911F910F910C94E9
S1130A10EB0B6CEE71E08BE994E00E94EB0B68EF5A
S1130A2071E00832110551F2DF91CF911F910F91BE
S1130A3008950E94D2080E94500480E00E94EE0CA7
S1130A4090E080E00895F894FC0101900020E9F71B
S1130A503197AF01481B590BBC018BE994E00E940C
S1130A60AF0B78940895809194019091950101962B
S1130A708C33910541F0909395018093940181E02A
S1130A8080936904089510929501109294018091C5
S1130A9096019091970101968C33910529F09093DA
S1130AA0970180939601EBCF1092970110929601D3
S1130AB0809198019091990101968831910529F0CE
S1130AC09093990180939801DACF10929901109232
S1130AD09801D5CF80916B048823C9F068E473E052
S1130AE08BE994E00E94FE0B6AEC78E081E994E0E3
S1130AF00E94ED036CE573E08BE994E00E94FE0B29
S1130B0080916B0491E0892780936B0408956FE6CC
S1130B1073E08BE994E00E94FE0B6EEE72E081E9D3
S1130B2094E00E94ED0367E873E0E6CF80916A04E5
S1130B308823C9F06EE973E08BE994E00E94FE0B10
S1130B406AEC78E080E994E00E94ED0362EB73E0E4
S1130B508BE994E00E94FE0B80916A0491E089275E
S1130B6080936A04089565EC73E08BE994E00E9435
S1130B70FE0B6EEE72E080E994E00E94ED0367E8FC
S1130B8073E0E6CFCF93DF9300D0CDB7DEB711E0AB
S1130B9083E090E00E94130EBE016F5F7F4F86E0FA
S1130BA00E942E0F898181FF1FC080916B048823CE
S1130BB0F1F168E473E08BE994E00E94FE0B6AECC7
S1130BC078E081E994E00E94ED036CE573E08BE941
S1130BD094E00E94FE0B80916B04812780936B0448
S1130BE082E090E00E94A30F898180FFD1CF8091A1
S1130BF06A04882359F16EE973E08BE994E00E945A
S1130C00FE0B6AEC78E080E994E00E94ED0362EB6D
S1130C1073E08BE994E00E94FE0B80916A048127C3
S1130C2080936A0481E090E00E94A30FB1CF6FE645
S1130C3073E08BE994E00E94FE0B6EEE72E081E9B2
S1130C4094E00E94ED0367E873E0C1CF65EC73E0C4
S1130C508BE994E00E94FE0B6EEE72E080E994E072
S1130C600E94ED0367E873E0D4CF8F929F92AF9216
S1130C70BF92CF92DF92EF92FF920F931F93CF9385
S1130C80DF93CDB7DEB764970FB6F894DEBF0FBE1F
S1130C90CDBF40E060E088E794E00E94EE018090E0
S1130CA06C0490906D04A0906E04B0906F04C0909A
S1130CB07004D0907104E0907204F0907304C50144
S1130CC0B4010E9449167F936F93A7019601C50151
S1130CD0B4010E94661520E030E040E05FE30E942A
S1130CE036170E9449167F936F93C701B6010E947D
S1130CF049167F936F9385EE93E09F938F938E01B4
S1130D000F5F1F4F1F930F930E945019B80188E77C
S1130D1094E00E94EB0B41E060E088E794E00E94DD
S1130D20EE010FB6F894DEBF0FBECDBF80916A040A
S1130D3021EE33E0882311F02DED33E080916B0434
S1130D40811189C081EE93E03F932F939F938F93FA
S1130D508AEF93E09F938F931F930F930E945019F0
S1130D60B80188E794E00E94EB0B42E060E088E77A
S1130D7094E00E94EE0187E00E94A0090FB6F89467
S1130D80DEBF0FBECDBF892B09F068C091EEE92EFE
S1130D9093E0F92E83E00E94A009892B09F063C037
S1130DA081EE93E0FF92EF929F938F938CE094E017
S1130DB09F938F931F930F930E945019B80188E754
S1130DC094E00E94EB0B0FB6F894DEBF0FBECDBFCC
S1130DD080916904882351F143E060E088E794E05E
S1130DE00E94EE01809195018F93809194018F93DD
S1130DF0809197018F93809196018F9380919901AF
S1130E008F93809198018F938EE194E09F938F93B9
S1130E101F930F930E945019B80188E794E00E9431
S1130E20EB0B0FB6F894DEBF0FBECDBF0E94E10DF1
S1130E3064960FB6F894DEBF0FBECDBFDF91CF919D
S1130E401F910F91FF90EF90DF90CF90BF90AF90E4
S1130E509F908F9008958DED93E076CF8DEDE82EE1
S1130E6083E0F82E97CF8DED93E09CCFCF92DF9265
S1130E70EF92FF92BC01990F880B990B0E94811687
S1130E8020E030EC4FE754E40E94D71520E030E036
S1130E9040EA50E40E9436176B017C01AC019B01CF
S1130EA060E070E080EA90E40E946515A701960175
S1130EB00E94D71520E030E44CE955E40E9436172F
S1130EC022EC3FE245E95FEB0E94A3172EE138E4F0
S1130ED049E559E40E943617FF90EF90DF90CF90D8
S1130EE00895CF92DF92EF92FF92CF93DF9383E145
S1130EF00E94C909909375048093740482E10E944E
S1130F00C909EC019093770480937604809174046A
S1130F10909175040E9436076B017C01C0926C04A9
S1130F20D0926D04E0926E04F0926F04CE010E94A0
S1130F3036076093700470937104809372049093E5
S1130F4073042091980130919901809196019091B8
S1130F509701223131053CF18E31910554F54E97BC
S1130F600CF43EC020E030E048E453E4C701B6018D
S1130F700E94D21561E018160CF460E083E00E9430
S1130F80720920E030E048E453E460917004709109
S1130F90710480917204909173040E94D215181602
S1130FA0B4F460E015C027303105CCF68E319105DC
S1130FB09CF483E00E94A009892B21F461E083E082
S1130FC00E94720987E00E94A009892B49F461E01C
S1130FD087E00E94720904C02630310509F4BFCFAE
S1130FE0C0906C04D0906D04E0906E04F0906F0497
S1130FF020E030E04AEF53E4C701B6010E94D21565
S113100087FF2CC080916B04811146C062E070E0C0
S113101086E00E949A0EC0907004D0907104E09013
S11310207204F090730420E030E04AEF53E4C70107
S1131030B6010E94D21587FF20C080916A048111F5
S113104036C061E070E086E00E949A0EDF91CF9195
S1131050FF90EF90DF90CF900C94E10D20E030E012
S11310604AEF53E4C701B6010E94311787FDD3CF7D
S113107080916B04882379F2C9CF20E030E04AEFF5
S113108053E4C701B6010E94311787FDDFCF809179
S11310906A048823D9F2D5CF20E030E04AEF53E444
S11310A0C701B6010E94311787FDB5CFAFCF20E04D
S11310B030E04AEF53E4C701B6010E94311787FDBF
S11310C0C5CFBFCFCF92EF920F9381E994E00E94F6
S11310D09A0380E994E00E949A038DE0C82E9CE074
S11310E0E92E0BE02AE049E068E088E794E00E94FA
S11310F0A3020F91EF90CF9008951F920F920FB615
S11311000F9211242F933F938F939F93AF93BF9389
S11311108091930490919404A0919504B0919604C5
S11311203091920423E0230F2D3758F50196A11D29
S1131130B11D209392048093930490939404A093FC
S11311409504B09396048091970490919804A0918B
S11311509904B0919A040196A11DB11D809397043E
S113116090939804A0939904B0939A04BF91AF917B
S11311709F918F913F912F910F900FBE0F901F90D1
S1131180189526E8230F0296A11DB11DD2CF8230F7
S1131190910538F0880F991F880F991F05970197BB
S11311A0F1F70895789484B5826084BD84B5816034
S11311B084BD85B5826085BD85B5816085BDEEE65B
S11311C0F0E0808181608083E1E8F0E0108280813A
S11311D082608083808181608083E0E8F0E08081A8
S11311E081608083E1EBF0E0808184608083E0EBC8
S11311F0F0E0808181608083EAE7F0E080818460B0
S1131200808380818260808380818160808380810B
S1131210806880831092C1000895833081F028F49F
S1131220813099F08230A9F008958730A9F0883090
S1131230C9F08430B1F4809180008F7D03C0809127
S113124080008F7780938000089584B58F7784BD64
S1131250089584B58F7DFBCF8091B0008F77809304
S1131260B00008958091B0008F7DF9CFCF93DF93C4
S113127090E0FC01E250FF4F24918E5E9E4FFC01F2
S113128084918823C9F090E0880F991FFC01E65CE3
S1131290FE4FA591B491FC01E05DFE4FC591D49140
S11312A061110DC09FB7F8948C91209582238C9383
S11312B08881282328839FBFDF91CF9108956230CE
S11312C051F49FB7F8943C91822F809583238C939B
S11312D0E8812E2BEFCF8FB7F894EC912E2B2C9323
S11312E08FBFEACF1F93CF93DF93282F30E0F9010C
S11312F0E651FF4F8491F901E250FF4FD491F90177
S1131300EE5EFE4FC491CC23A9F0162F81110E94EA
S11313100D09EC2FF0E0EE0FFF1FE05DFE4FA591ED
S1131320B4918FB7F894EC91111108C0D095DE23D5
S1131330DC938FBFDF91CF911F910895DE2BF8CFFF
S1131340CF93DF93282F30E0F901E651FF4F8491CA
S1131350F901E250FF4FD491F901EE5EFE4FC491C2
S1131360CC23A1F081110E940D09EC2FF0E0EE0FC7
S1131370FF1FEA5DFE4FA591B491EC91ED2381E04E
S113138090E009F480E0DF91CF91089580E090E04F
S1131390FACF8E3008F08E5020919A0190E4299F64
S11313A0900111248770822B80937C0080917A00B5
S11313B0806480937A0080917A0086FDFCCF8091CE
S11313C07800909179000895FC01918D228D892FE8
S11313D090E0805C9F4F821B91098F739927089539
S11313E0FC01918D828D981731F0828DE80FF11DEB
S11313F0858D90E008958FEF9FEF0895FC01918D06
S1131400828D981761F0A28DAE0FBF2FB11D5D962E
S11314108C91928D9F5F9F73928F90E008958FEFD0
S11314209FEF0895FC01538D448D252F30E0842FC8
S113143090E0821B930B541710F0CF9608950197F8
S1131440089588E79BE0892B49F080E090E0892BA0
S113145029F00E94780B81110C9400000895FC017E
S1131460A48DA80FB92FB11DA35ABF4F2C91848D01
S113147090E001968F739927848FA689B7892C935E
S1131480A089B1898C91837080648C93938D848DB1
S1131490981306C00288F389E02D80818F7D8083B4
S11314A00895CF93DF93EC01888D8823B9F0AA893E
S11314B0BB89E889F9898C9185FD03C0808186FD0B
S11314C00DC00FB607FCF7CF8C9185FFF2CF80815A
S11314D085FFEDCFCE010E942F0AE9CFDF91CF9196
S11314E00895EF92FF920F931F93CF93DF93EC0134
S11314F081E0888F9B8D8C8D98131AC0E889F989B7
S1131500808185FF15C09FB7F894EE89FF896083B9
S1131510E889F98980818370806480839FBF81E03A
S113152090E0DF91CF911F910F91FF90EF9008957C
S1131530F62E0B8D10E00F5F1F4F0F731127E02E57
S11315408C8D8E110CC00FB607FCFACFE889F9898F
S1131550808185FFF5CFCE010E942F0AF1CFEB8D5C
S1131560EC0FFD2FF11DE35AFF4FF0829FB7F89463
S11315700B8FEA89FB8980818062CFCFCF92DF9283
S1131580EF92FF921F93CF93DF93EC016A017B01EB
S1131590122FE889F98982E08083C11481EED8068C
S11315A0E104F104A1F060E079E08DE390E0A701AB
S11315B096010E9428192150310941095109569573
S11315C0479537952795211580E1380798F0E889E4
S11315D0F989108260E874E88EE190E0A701960131
S11315E00E942819215031094109510956954795FE
S11315F037952795EC85FD853083EE85FF8520831F
S1131600188EEC89FD891083EA89FB8980818061C9
S11316108083EA89FB89808188608083EA89FB89E9
S1131620808180688083EA89FB8980818F7D8083C3
S1131630DF91CF911F91FF90EF90DF90CF900895AD
S11316401F920F920FB60F9211242F938F939F9393
S1131650EF93FF93E091AB04F091AC048081E091AF
S1131660B104F091B20482FD1BC090818091B40456
S11316708F5F8F732091B504821741F0E091B40419
S1131680F0E0E556FB4F958F8093B404FF91EF9102
S11316909F918F912F910F900FBE0F901F901895CF
S11316A08081F4CF1F920F920FB60F9211242F93C3
S11316B03F934F935F936F937F938F939F93AF93D6
S11316C0BF93EF93FF938BE994E00E942F0AFF915D
S11316D0EF91BF91AF919F918F917F916F915F91A6
S11316E04F913F912F910F900FBE0F901F9018951F
S11316F08BE994E00E94E40921E0892B09F420E0BD
S1131700822F0895EBE9F4E01382128288EE93E0CD
S1131710A0E0B0E084839583A683B7838AE394E052
S11317209183808385EC90E09587848784EC90E0B6
S11317309787868780EC90E0918B808B81EC90E09A
S1131740938B828B82EC90E0958B848B86EC90E07B
S1131750978B868B118E128E138E148E0895AF92F2
S1131760BF92CF92DF92EF92FF920F931F93CF938A
S1131770DF936C017B018B01040F151FEB015E01EC
S1131780AE18BF08C017D10759F06991D601ED9181
S1131790FC910190F081E02DC6010995892B79F720
S11317A0C501DF91CF911F910F91FF90EF90DF90D2
S11317B0CF90BF90AF900895FB0101900020E9F70E
S11317C03197AF01461B570BDC01ED91FC91028070
S11317D0F381E02D09946115710511F00C94DC0B73
S11317E090E080E00895DC01ED91FC910190F0819E
S11317F0E02D099460EC71E00C94DC0B0F931F93C3
S1131800CF93DF938C01D0E0C0E06115710519F02E
S11318100E94DC0BEC01C8010E94FA0B8C0F9D1F87
S1131820DF91CF911F910F9108958F929F92AF9264
S1131830BF92EF92FF920F931F93CF93DF93CDB795
S1131840DEB7A1970FB6F894DEBF0FBECDBF7C0103
S1131850FA01CB0119A2223008F42AE08E010F5DAF
S11318601F4F822E912CB12CA12CBF01A5019401F4
S11318700E942819F901CA016A300CF5605DD8018B
S11318806E938D01232B242B252B79F790E080E098
S1131890109721F0BD01C7010E94DC0BA1960FB681
S11318A0F894DEBF0FBECDBFDF91CF911F910F9192
S11318B0FF90EF90BF90AF909F908F900895695CD8
S11318C0DECFCF92DF92EF92FF920F931F93CF93CD
S11318D0DF932115310581F4DC01ED91FC91019038
S11318E0F081E02D642FDF91CF911F910F91FF9034
S11318F0EF90DF90CF9009942A30310501F52AE06A
S113190077FF1DC06A017B01EC016DE20E94F30BBD
S11319108C0144275527BA014C195D096E097F09CA
S11319202AE0CE010E94150C800F911FDF91CF9108
S11319301F910F91FF90EF90DF90CF900895DF916A
S1131940CF911F910F91FF90EF90DF90CF900C9467
S1131950150C9A01AB01770F660B770B0C94610C95
S11319600F931F93CF93DF93EC010E94A90C8C017A
S1131970CE010E94FA0B800F911FDF91CF911F912E
S11319800F910895FC01818D81110BC0828D81110D
S113199008C021E090E0838D811101C020E0822FF6
S11319A0089581E090E008950F931F93CF93DF9300
S11319B0EC010D891E890330110559F0CB0123E098
S11319C030E03E8B2D8B7C876B870E94A7041E8B97
S11319D00D8BDF91CF911F910F9108954F925F92DC
S11319E06F927F928F929F92AF92BF92CF92DF922B
S11319F0EF92FF920F931F93CF93DF9300D0CDB755
S1131A00DEB7882E00914F0210915002FFB6F89471
S1131A10D80118968D919C911997892B09F0B0C023
S1131A208BEC92E19A8389830E940B13A09053025A
S1131A30B090540281E090E0F8019187808782861B
S1131A40E588F68887E090E0968B858B0E941304E6
S1131A50D8015696FC92EE925597E0905B02F09076
S1131A605C02D12CC12CB4E08B9E40011124E80C03
S1131A70F91C3701E2E06E0E711C46E0542EF301AE
S1131A8080819181C816D906E0F1E0905702F09068
S1131A9058023801F2E06F0E711CD12CC12CE80CF5
S1131AA0F91C270182E0480E511C88248394912C50
S1131AB0F20180819181C816D906E8F1D8011896FF
S1131AC08D919C911997019731F482E090E01996D9
S1131AD09C938E931897F80180859185029741F421
S1131AE0D50112966D917C91AB01C5010E9416013E
S1131AF0F80180859185029709F4789490E080E05C
S1131B004DC0D701ED91FC915C9CC0015D9C900D92
S1131B101124E80FF91FA081B1812481358142810C
S1131B205381BD0112968D919C910E94B812BFEF12
S1131B30CB1ADB0AA4CFD701ED91FC91C601880F23
S1131B40991FE80FF91F40815181DA011496ED9134
S1131B50FC9180818F5F808393828282F80164810B
S1131B607581DB018D919C911197958384831D92DE
S1131B701C92C3010E940811BFEFCB1ADB0A98CF55
S1131B8088E390E01E969C938E931D9761E070E02D
S1131B90C8010E94D40CFFBE81E090E00F900F902A
S1131BA0DF91CF911F910F91FF90EF90DF90CF9035
S1131BB0BF90AF909F908F907F906F905F904F9069
S1131BC008951F93CF93DF9380914F029091500219
S1131BD0DC01ED91FC91278130852230310588F4B8
S1131BE0A481B58114962D913C91C6E0D0E0232BBD
S1131BF051F48FB7F89460EF7FE0828193810E9463
S1131C003601C2E0D0E01FB7F89422E030E0FC01D6
S1131C1036872587BE010E94D40C1FBFCE01DF91F9
S1131C20CF911F9108959F92AF92BF92CF92DF926E
S1131C30EF92FF920F931F93CF93DF9300D0CDB712
S1131C40DEB76C01E0904F02F0905002C7010E9491
S1131C50C20C892B09F045C0D701AD90BC90F501A9
S1131C608781908502E010E082309105E0F50481DF
S1131C701581D80114962D913C911597232B09F0C9
S1131C8053C0019709F053C018968D919C918C21F3
S1131C909D21892B19F59FB6F894F801D782C68245
S1131CA0AE014F5F5F4F6FE472E089E392E00E9400
S1131CB0A311E981FA81D70114962D913C911597CE
S1131CC0318320831596FC93EE931497BC01C501D0
S1131CD00E941713F801178216829FBE10E000E0DD
S1131CE014C00CE010E0BFB6F89482E290E0D70193
S1131CF01E969C938E931D975096DC92CE921F97BE
S1131D00B801C7010E94D40CBFBEC8010F900F9048
S1131D10DF91CF911F910F91FF90EF90DF90CF90C3
S1131D20BF90AF909F90089506E010E0DCCF01E0F3
S1131D3010E0D9CFDF92EF92FF920F931F93CF93CE
S1131D40DF93182F7B01C0914F02D0915002CE0136
S1131D500E94C20C212F30E0892B09F076C0E88163
S1131D60F98187819085039708F072C080913F02C2
S1131D70909140022817390708F06DC0E0913B02AA
S1131D80F0913C02C901880F991FE80FF91FA08147
S1131D90B1811496ED91FC9115971FB7F89417969D
S1131DA08D919C911897019799F01FBF01E010E065
S1131DB0DFB6F8948CE190E09E878D87388B2F876F
S1131DC0FA8AE98AB801CE010E94D40CDFBE34C07D
S1131DD0428153814115510521F41FBF07E010E0F2
S1131DE0E7CF808591858E299F2991878087868179
S1131DF09781E822F922EF28E1F043305105C9F434
S1131E00EC81FD81808191819D838C83118210827C
S1131E10B383A283AF016FE472E089E392E00E948E
S1131E20C811892B31F06FE472E089E392E00E94DB
S1131E3077121FBF10E000E0C801DF91CF911F911E
S1131E400F91FF90EF90DF9008950CE010E0B0CF79
S1131E5002E010E0ADCF03E010E0AACFDF92EF92F2
S1131E60FF920F931F93CF93DF93C82F7B010091B1
S1131E704F0210915002C8010E94C20C2C2F30E076
S1131E80892BE1F5D801ED91FC9187819085039729
S1131E9008F04DC080913F02909140022817390705
S1131EA008F048C0E0913B02F0913C02C901880F60
S1131EB0991FE80FF91F0190F081E02D878190852B
S1131EC0C1E0D0E00197E1F40480F581E02D828146
S1131ED09381892B91F1E114F10491F1808591852D
S1131EE0F70191838083D0E0C0E0CE01DF91CF91F0
S1131EF01F910F91FF90EF90DF900895CCE0D0E018
S1131F00DFB6F89480E290E0D8011E969C938E93FD
S1131F101D9750963C932E931F975296FC92EE92E7
S1131F205197BE01C8010E94D40CDFBEDECFC2E0CF
S1131F30D0E0E6CFC3E0D0E0E3CFC7E0D0E0E0CF2D
S1131F40CEE0D0E0DDCFDF92EF92FF920F931F93AC
S1131F50CF93DF937C0100914F0210915002C8018E
S1131F600E94C20C892B21F5D801ED91FC91878147
S1131F709085C2E0D0E082309105E0F4C1E0D0E089
S1131F800197C1F40480F581E02DE094F0948085FC
S1131F909185E822F922F186E086D0E0C0E0CE0106
S1131FA0DF91CF911F910F91FF90EF90DF900895F3
S1131FB0CCE0D0E0DFB6F8948EE190E0F8019687AB
S1131FC08587F08AE786BE01C8010E94D40CDFBE73
S1131FD0E6CFE0914F02F0915002858596850895F1
S1131FE0CF93DF9300D0CDB7DEB7AE014F5F5F4F25
S1131FF06FE472E089E392E00E94FA11BC018981E6
S11320009A810E9432130F900F90DF91CF9108951F
S1132010E0914F02F0915002DC0117968D919C9152
S11320208230910528F481E090E0968B858B0895A9
S113203082309105D1F38AE090E0F7CFEC01EC8196
S1132040FD8111810E9408101F3F09F07894E985F1
S1132050FA8509958FB7F89460EF7FE08A819B81B8
S11320600E9436010F931F93CF93DF93CFB7F89459
S11320706FE472E089E392E00E947712CFBF00918F
S11320804F0210915002C0915102D0915202F801B6
S1132090808591858230910551F080915302909111
S11320A05402DF91CF911F910F910C944813209704
S11320B089F3FE010995EBCF0F931F93CF93DF9321
S11320C0EC01A881B981EB01E881F9811696CD91E3
S11320D0DC9117972097C1F18A819B81309709F48D
S11320E03FC0EC010C811D8122813381E9014C81C7
S11320F05D81E8013981EA012981321788F522E0FE
S113210030E0E8013B832A8320813181EB0139836C
S11321102883C281D3812C813D8116964D915C9197
S11321201797518340831796FC93EE931697CD939C
S1132130DC934C85F9015181541708F44183DF91F4
S1132140CF911F910F910895309751F0EC018C813C
S11321509D81EC014C815D8122E030E0EA01D2CF27
S113216090E080E0ECCFCF92DF92EF92FF920F935A
S11321701F93CF93DF93EB01AA81BB811496ED915A
S1132180FC9115974115510501F1228133812230CB
S11321903105D8F01B962C91DC01ED91FC91B0E057
S11321A0A0E03097A1F4109769F16D937C9390E0CF
S11321B080E0EB01F983E883DF91CF911F910F91C8
S11321C0FF90EF90DF90CF9008952181E5CF0281B9
S11321D01381E801CC80DD804115510581F0E601D1
S11321E0EA80FB80D2E0ED16F10448F0E8013B857B
S11321F03217C8F2DF010190F081E02DD2CFE60161
S11322003981F6CFDC016D937C9381E090E0D1CFEE
S1132210FB015383428341E050E00C94B310EF92EE
S1132220FF920F931F93CF93DF938C01FC01C08126
S1132230D181EE80FF80F701808191819F838E831D
S1132240C8010E945C10892B41F4EE81FF81309714
S113225061F08281938199838883C701DF91CF9153
S11322601F910F91FF90EF900895F801848195815B
S1132270F2CFCF92DF92EF92FF920F931F93CF93FF
S1132280DF93DA011496CD91DC91159798811D9610
S11322908C91981708F054C0DB01ED91FC910081FA
S11322A01181D8011496ED90FC909F5F9883C480AF
S11322B0D580D6016D917C91232B69F1D7011196BC
S11322C09C9111978981981730F57583648382E016
S11322D090E013969C938E931297D60113965C9379
S11322E04E931297868197818D939C93D782C68251
S11322F05183408319861886BA01C8010E941713B6
S113230090E080E0DF91CF911F910F91FF90EF90CB
S1132310DF90CF9008958A819B81892B31F481E0ED
S113232090E09B838A831986188675836483D6011B
S11323301D921C92B601CF0102960E940811E0CFB3
S113234084E090E0DFCFEF92FF920F931F93CF933F
S1132350DF93CB017A01DB01CD91DC91FE01019188
S11323601191BF010E940F11D7018D939C93D80145
S11323701496ED91FC9183E090E0938382838881AD
S11323809981DF91CF911F910F91FF90EF90089564
S11323900F931F93CF93DF93FA01DB010D911C91EF
S11323A042815381DA011496CD91DC91159782E034
S11323B090E09B838A831B968C918983BF01C8011B
S11323C002960E940811019791F4D801ED91FC91B5
S11323D00480F581E02D81E090E03981218123178B
S11323E008F080E0DF91CF911F910F91089580E074
S11323F090E0F8CFAF92BF92CF92DF92EF92FF922C
S11324000F931F93CF93DF935B01DB01CD91DC919D
S1132410FE01019111916F01D8011496ED90FC9089
S1132420FA0111830083D70112968D919C91049730
S1132430A9F5B601C5010E940F11AC0188819981EB
S11324400817190731F1D8011496ED91FC911597ED
S11324501B962C912183208121502083211114C0AB
S1132460138212822C813D81DA012D933C935D838A
S11324704C83DF91CF911F910F91FF90EF90DF90EC
S1132480CF90BF90AF90089521E030E03383228352
S1132490E9CFF701208121502083E4CF6E817F8131
S11324A0FB01808191819F838E83D8011B968C913F
S11324B0F701818381E090E093838283808181307E
S11324C011F411861086A801C6010E940811B601F4
S11324D0C5010E945C10892B39F4EE81FF81828151
S11324E0938199838883C5CF88819981C2CFCF9303
S11324F0DF93CB01FB01C081D181BE016E5F7F4FB1
S11325000E945C10009749F0688179810E9417133A
S113251081E090E0DF91CF91089590E080E0FACFE0
S1132520CF93DF93DB01ED91FC9180819181268132
S11325303781EC01AC81BD8162E070E013967C933D
S11325406E93129751834083A481B5816D917C91E0
S1132550119775836483B783A68313965C934E9314
S113256012972D933C93BA01DF91CF910C941713DA
S1132570DB01ED91FC91A481B581AB2B39F4378358
S113258026830E94AE1390E080E0089587E090E0F7
S11325900895F894FFCFE2E908958F939F9380E024
S11325A00E94D5129F918F9118951F920F920FB68A
S11325B00F9211242F933F934F935F936F937F93C5
S11325C0AF93BF93EF93FF93E0913B02F0913C02F2
S11325D090E0880F991FE80FF91F40815181DA01BB
S11325E01496ED91FC9180818F5F80836FE472E09B
S11325F089E392E00E949012FF91EF91BF91AF9115
S11326007F916F915F914F913F912F910F900FBEEA
S11326100F901F90089568EE73E080E090E00C94B2
S1132620071580915502909156020C94CE13FB012C
S1132630A481B58112962D913C91139744E050E00A
S113264013965C934E931297DC0112964D915C9114
S113265062817381CF012230310511F40C94CE00D4
S11326600C941601CB01DB011496ED91FC911597A6
S11326702281338144E050E05383428312966D916A
S11326807C912230310511F40C94EE000C940E016F
S1132690DC0112966D917C911397ED91FC91408130
S11326A05181DB01ED91FC9122893389211531059A
S11326B019F04217530729F4DB01ED93FC930C94B2
S11326C0EE00F901F1CFEF92FF920F931F93CF9396
S11326D0DF93DC018D919C91DC01ED91FC911197CC
S11326E012960D911C91DB01CD91DC9121E030E03B
S11326F03D832C835B834A8330E020E03097E1F014
S1132700A081B1811296ED90FC9013970E151F05D0
S113271068F44E155F0518F40417150768F0FC906B
S11327201196AC919F01EF2DFA2FE8CF04171507EE
S113273018F04E155F0598F72115310519F0D901E8
S11327408D919C91DC016D937C93F983E883DF91F7
S1132750CF911F910F91FF90EF900895CF93DF9346
S1132760DC011296ED91FC9113970D90BC91A02D74
S113277012962D913C91DF01A41BB50BA217B30750
S113278030F0420F531FDF91CF910C9463134150EB
S11327905109420F531F4E1B5F0BF5CF2F923F92EF
S11327A04F925F926F927F928F929F92AF92BF925D
S11327B0CF92DF92EF92FF920F931F93CF93DF9309
S11327C000D000D0CDB7DEB7DC010D911C9111977C
S11327D0F8012281338112964D915C9124173507BB
S11327E008F45AC01382128230E020E0F80101900C
S11327F0F081E02DFC83EB83309709F491C00190C4
S1132800F081E02D428153814217530709F088C0BB
S1132810AB81BC812D913C91F901A081B1811097CC
S113282049F06D917C911197FB0162817381461788
S1132830570781F32C01F90111821082F801B18349
S1132840A083E0904F02F09050023701670183E0CB
S1132850282E312CAB81BC81AD90BC90F501F08168
S1132860F983D5011196BC91BA83F50186809780CE
S1132870AB81BC811C968D919C918130910509F4AA
S113288066C078F08230910509F49FC0039709F47B
S1132890A3C010E000E012C02F5F3F4F33832283B8
S11328A0A5CFEB81FC814681578130E020E06FE4C5
S11328B072E089E392E00E9439118C018114910441
S11328C009F49FC0A4016B817C81C2010E94AE13F4
S11328D001151105E1F0BFB6F894F6010588F689F3
S11328E0E02DFC83EB83339789F0D60156963C9216
S11328F02E9255971C961C930E931B97C8010E9409
S1132900A7044B815C81F601568B458BBFBE598170
S11329105B838A818C83AB81BC81AB2B09F09ACF1A
S11329200F900F900F900F90DF91CF911F910F9107
S1132930FF90EF90DF90CF90BF90AF909F908F90DB
S11329407F906F905F904F903F902F900895AB8150
S1132950BC8116966D917C91DB011496ED91FC91EE
S11329604281538107E010E04115510509F4A6CFD7
S1132970AB81BC811A968D919C9120853185282B41
S1132980392B318720872681378182239323892B12
S113299009F47FCF4330510509F07BCFD70114965A
S11329A0ED91FC9115978081918115969C938E935E
S11329B014971182108273836283AF016FE472E013
S11329C089E392E00E94C81164CFEB81FC81808589
S11329D091850E94CE135DCFD30155960D911C9124
S11329E05697E9E0F0E05696FC93EE935597AB8149
S11329F0BC811496ED91FC910995F301168B058B1E
S1132A0048CFD50115961C921E92149761CF10924F
S1132A108100109280001092820010928500109222
S1132A208400611520E1720781059105A0F4E4E0BA
S1132A30660F771FEA95E1F76150710981E092E032
S1132A4096BB90936F0070938900609388008860B0
S1132A50809381000895611520E87207810591052E
S1132A6030F4660F771F6150710982E0E8CF6C3F44
S1132A702FEF720723E08207910558F442E0969500
S1132A808795779567954A95D1F76150710983E0E9
S1132A90D6CF6115710520E18207910558F434E021
S1132AA096958795779567953A95D1F76150710911
S1132AB084E0C5CF26E096958795779567952A9506
S1132AC0D1F76150710985E0BACF5058BB27AA27C6
S1132AD00E947D150C94F7160E94E91638F00E94A6
S1132AE0F01620F039F49F3F19F426F40C94E616FE
S1132AF00EF4E095E7FB0C94E016E92F0E9408170A
S1132B0058F3BA17620773078407950720F079F41E
S1132B10A6F50C942A170EF4E0950B2EBA2FA02DCF
S1132B200B01B90190010C01CA01A0011124FF2776
S1132B30591B99F0593F50F4503E68F11A16F04071
S1132B40A22F232F342F4427585FF3CF4695379570
S1132B502795A795F0405395C9F77EF41F16BA0B35
S1132B60620B730B840BBAF09150A1F0FF0FBB1FE3
S1132B70661F771F881FC2F70EC0BA0F621F731F2C
S1132B80841F48F4879577956795B795F7959E3F89
S1132B9008F0B0CF9395880F08F09927EE0F97951A
S1132BA0879508950E94BC1608F481E008950E9458
S1132BB0EB150C94F7160E94F01658F00E94E916D3
S1132BC040F029F45F3F29F00C94E01651110C9465
S1132BD02B170C94E6160E94081768F39923B1F397
S1132BE0552391F3951B550BBB27AA27621773072F
S1132BF0840738F09F5F5F4F220F331F441FAA1FC3
S1132C00A9F335D00E2E3AF0E0E832D0915050407E
S1132C10E695001CCAF72BD0FE2F29D0660F771F2C
S1132C20881FBB1F261737074807AB07B0E809F012
S1132C30BB0B802DBF01FF2793585F4F3AF09E3F97
S1132C40510578F00C94E0160C942B175F3FE4F3D5
S1132C50983ED4F3869577956795B795F7959F5FDA
S1132C60C9F7880F911D9695879597F90895E1E026
S1132C70660F771F881FBB1F621773078407BA0785
S1132C8020F0621B730B840BBA0BEE1F88F7E095E0
S1132C9008950E9450166894B1110C942B1708954E
S1132CA00E94101788F09F5798F0B92F9927B751B1
S1132CB0B0F0E1F0660F771F881F991F1AF0BA95DC
S1132CC0C9F714C0B13091F00E942A17B1E00895F9
S1132CD00C942A17672F782F8827B85F39F0B93FEB
S1132CE0CCF3869577956795B395D9F73EF490958F
S1132CF08095709561957F4F8F4F9F4F0895E8940D
S1132D0009C097FB3EF490958095709561957F4F2F
S1132D108F4F9F4F9923A9F0F92F96E9BB279395DD
S1132D20F695879577956795B795F111F8CFFAF4ED
S1132D30BB0F11F460FF1BC06F5F7F4F8F4F9F4F1E
S1132D4016C0882311F096E911C0772321F09EE87C
S1132D50872F762F05C0662371F096E8862F70E0E2
S1132D6060E02AF09A95660F771F881FDAF7880FBC
S1132D709695879597F90895990F0008550FAA0B12
S1132D80E0E8FEEF16161706E807F907C0F012167A
S1132D901306E407F50798F0621B730B840B950B7D
S1132DA039F40A2661F0232B242B252B21F40895D2
S1132DB00A2609F4A140A6958FEF811D811D08956F
S1132DC097F99F6780E870E060E008959FEF80ECDA
S1132DD0089500240A94161617061806090608957D
S1132DE000240A9412161306140605060895092EE3
S1132DF00394000C11F4882352F0BB0F40F4BF2B52
S1132E0011F460FF04C06F5F7F4F8F4F9F4F089591
S1132E1057FD9058440F551F59F05F3F71F0479587
S1132E20880F97FB991F61F09F3F79F0879508956C
S1132E30121613061406551FF2CF4695F1DF08C08B
S1132E40161617061806991FF1CF869571056105A8
S1132E5008940895E894BB2766277727CB0197F950
S1132E6008950E94BC1608F48FEF08950E94491734
S1132E700C94F7160E94E91638F00E94F01620F020
S1132E80952311F00C94E0160C94E61611240C947E
S1132E902B170E94081770F3959FC1F3950F50E00C
S1132EA0551F629FF001729FBB27F00DB11D639FF8
S1132EB0AA27F00DB11DAA1F649F6627B00DA11D9E
S1132EC0661F829F2227B00DA11D621F739FB00D44
S1132ED0A11D621F839FA00D611D221F749F3327B4
S1132EE0A00D611D231F849F600D211D822F762F4D
S1132EF06A2F11249F5750409AF0F1F088234AF02A
S1132F00EE0FFF1FBB1F661F771F881F9150504095
S1132F10A9F79E3F510580F00C94E0160C942B17F2
S1132F205F3FE4F3983ED4F3869577956795B7951C
S1132F30F795E7959F5FC1F7FE2B880F911D969536
S1132F40879597F90895FA01EE0FFF1F3096210532
S1132F503105A1F16115710561F48038BFE39B0768
S1132F6049F168949038810561F08038BFEF9B0780
S1132F7041F099234AF5FF3FE1053105210519F197
S1132F80E8940894E795D901AA2329F4AB2FBE2F1E
S1132F90F85FD0F310C0FF5F70F4A695E0F7F7393F
S1132FA050F019F0FF3A38F49F779F930DD00F90AB
S1132FB007FC9058089546F00C94E61660E070E023
S1132FC080E89FE308954FE79F775F934F933F9384
S1132FD02F930E949E182F913F914F915F910E94D1
S1132FE036170C94FB1729F416F00C94E0160C9485
S1132FF02A170C94E6160E941017A8F39638A0F727
S113300007F80F92E8942BE33AEA48EB5FE70E9453
S11330104C170F920F920F924DB75EB70F920E940A
S1133020E618E8E6F0E00E942D184F915F91EF91C9
S1133030FF91E595EE1FFF1F49F0FE57E068442716
S1133040EE0F441FFA95E1F74195550B0E94601865
S11330500F9007FE0C9454180895DF93CF931F9399
S11330600F93FF92EF92DF927B018C01689406C06C
S1133070DA2EEF010E944917FE01E894A5912591EB
S1133080359145915591A6F3EF010E947D15FE01FE
S11330909701A801DA9469F7DF90EF90FF900F9100
S11330A01F91CF91DF9108959B01AC0160E070E026
S11330B080E89FE30C94D7150C94E0160C941A192D
S11330C00E941017D8F39923C9F3940F511DA3F349
S11330D09150504094F059F0882332F0660F771FD6
S11330E0881F91505040C1F79E3F51052CF7880F1F
S11330F0911D9695879597F908955F3FACF0983E9A
S11331009CF0BB27869577956795B79508F4B160D1
S11331109395C1F7BB0F58F711F460FFE8CF6F5FC9
S11331207F4F8F4F9F4FE3CF0C942B1716F00C94C7
S11331301A190C94E61668940C94E0160E94101761
S1133140A8F39923C1F3AEF3DF93CF931F930F93A7
S1133150FF92C92FDD2788232AF02197660F771F56
S1133160881FDAF720E030E040E85FEB9FE388391E
S113317020F0803E38F021968F770E946615E0E9B2
S1133180F0E004C00E946615EDEBF0E00E942D18FB
S11331908B01BE01EC01FB2E6F5771097595771FEA
S11331A0880B990B0E94811628E132E741E35FE323
S11331B00E944917AF2D9801AE01FF900F911F9106
S11331C0CF91DF910E947D150C94F716FA01DC0172
S11331D0AA0FBB1F9B01AC01BF5728F4222733273A
S11331E04427507820C0B75190F4AB2F0024469563
S11331F037952795011CA395D2F3002071F0220F77
S1133200331F441FB395DAF30ED00C946515613067
S11332107105A0E88A07B94630F49B01AC01662722
S1133220772788279078309621F020833183428352
S1133230538308959F3F31F0915020F487957795FB
S11332406795B795880F911D9695879597F9089579
S1133250A1E21A2EAA1BBB1BFD010DC0AA1FBB1F96
S1133260EE1FFF1FA217B307E407F50720F0A21B08
S1133270B30BE40BF50B661F771F881F991F1A9475
S113328069F760957095809590959B01AC01BD019F
S1133290CF010895EE0FFF1F0590F491E02D0994DE
S11332A0AEE0B0E0E6E5F9E10C94FF1B0D891E8960
S11332B086E08C831A8309838FEF9FE79E838D8337
S11332C0AE01475E5F4F6F89788DCE0101960E94F3
S11332D073192F813885020F131FF80110822E965F
S11332E0E4E00C941B1CABE0B0E0E9E7F9E10C94DA
S11332F0F11B7C013B018A01FC0117821682838148
S113330081FFC8C1CE0101965C01F7019381F301ED
S113331093FD859193FF81913F01882309F453C163
S1133320853239F493FD859193FF81913F01853274
S113333029F4B70190E00E94631BE7CF912C212C64
S1133340312CFFE1F31538F08B3211F190F4803217
S113335009F1833229F137FC3CC020ED280F2A30D3
S113336050F536FE20C08AE0989E200D1124922E3E
S113337006C08D3291F0803371F7689430F8F30110
S113338093FD859193FF81913F018111DACF21C093
S1133390689431F8689432F8F2CF689433F8EFCF38
S11333A0689434F8ECCFEAE02E9E200D1124222EEE
S11333B0689435F8E4CF8E3229F436FC04C168945D
S11333C036F8DDCF8C3619F4689437F8D8CF8836C0
S11333D0B1F2982F9F7D95549330E0F08336A1F19C
S11333E08337C1F1833509F063C02801F2E04F0E41
S11333F0511CF801C080D180692D70E036FC02C0F8
S11334006FEF7FEFC6010E944D1B4C01689437F8A3
S113341082010AC00C5F1F4FFFE3F9838824839461
S1133420912C6501E89437F833FE2DC0522C811499
S1133430910471F5552009F468CFB70180E290E05A
S11334400E94631B5A94F6CFF801808189830E5F32
S11334501F4FE4CF2801F2E04F0E511CF801C08049
S1133460D180692D70E036FC02C06FEF7FEFC6019A
S11334700E94581B4C018201D5CFB70180E290E035
S11334800E94631B2A942814190409F0B0F7CECFC4
S1133490F60137FC859137FE81916F01B70190E009
S11334A00E94631B51105A94F1E08F1A9108BFCF08
S11334B0843619F0893609F077C0F80137FE6BC0FD
S11334C060817181828193810C5F1F4FF32DFF76A0
S11334D03F2E97FF09C090958095709561957F4F19
S11334E08F4F9F4F689437F82AE030E0A5010E947F
S11334F0931BC82ECA188C2C432C36FE0CC0E8949F
S113350040F8C91440F434FE05C032FC03C0F32D66
S1133510FE7E4F2E892C44FE95C0FE01EC0DF11D5C
S11335208081803309F087C0242D297E422E842D8A
S11335308870582E43FC95C040FE8FC09C2C82148A
S113354018F42C0C922C981844FE91C0B70180E317
S113355090E00E94631B42FE09C088E790E041FEB0
S113356002C088E590E0B7010E94631BC91408F407
S11335708AC0CA94D12C9FEFC91AD90ACA0CDB1C81
S1133580F60182916F01B70190E00E94631BAC14B5
S1133590BD04B1F74FCF60817181072E000C880BF9
S11335A0990B0E5F1F4F92CFD32CE894D4F82AE0E6
S11335B030E0853739F1232D297FD22E8F3601F162
S11335C048F48835A9F0F701868197812B96E2E1CA
S11335D00C940D1C803749F08837A9F7D4FE02C03B
S11335E06894D2F820E130E00DC06894D4F8F6CFA6
S11335F034FE03C0822F8660D82E20E132E002C060
S113360028E030E0F801D7FE0FC06081718182812B
S113361093810C5F1F4FA5010E94931BC82ECA18EB
S11336203D2CE89437F867CF6081718190E080E0A9
S11336300E5F1F4FF0CF42FC02C0839478CF839477
S1133640839475CF842D867809F471CFF6CFB701B2
S113365080E290E00E94631B83948214C0F3512C97
S113366073CF522C5818821408F46ECFF8CF842DDF
S1133670867809F47BCF8BE241FE80E247FC8DE241
S1133680B70190E071CFB70180E390E00E94631B23
S11336909A946CCF8FEF9FEF99CFFC010590615006
S11336A070400110D8F7809590958E0F9F1F089554
S11336B0FC016150704001900110D8F780959095FD
S11336C08E0F9F1F08950F931F93CF93DF93182F8F
S11336D0092FEB018B8181FD09C01FEF0FEF812FB3
S11336E0902FDF91CF911F910F91089582FF14C005
S11336F02E813F818C819D81281739073CF4E88114
S1133700F981CF0101969983888310838E819F81EB
S113371001969F838E83E3CFE885F985812F0995F0
S1133720892BA1F3DACFFA01AA27283051F12031ED
S113373081F1E8946F936E7F6E5F7F4F8F4F9F4F41
S1133740AF4FB1E03ED0B4E03CD0670F781F891F83
S11337509A1FA11D680F791F8A1F911DA11D6A0F51
S1133760711D811D911DA11D20D009F468943F9104
S11337702AE0269F11243019305D3193DEF6CF0103
S11337800895462F4770405D4193B3E00FD0C9F7C9
S1133790F6CF462F4F70405D4A3318F0495D31FD36
S11337A04052419302D0A9F7EACFB4E0A695979589
S11337B0879577956795BA95C9F70097610571055F
S11337C008959B01AC010A2E0694579547953795A9
S11337D02795BA95C9F7620F731F841F951FA01D03
S11337E008952F923F924F925F926F927F928F92A1
S11337F09F92AF92BF92CF92DF92EF92FF920F937C
S11338001F93CF93DF93CDB7DEB7CA1BDB0B0FB685
S1133810F894DEBF0FBECDBF09942A883988488842
S11338205F846E847D848C849B84AA84B984C884D8
S1133830DF80EE80FD800C811B81AA81B981CE0FCF
S1133840D11D0FB6F894DEBF0FBECDBFED010895B4
S1073850F894FFCF16
S113385400000A1F1F0E04003203000024010000AC
S11338640000FF00004200FFFFFFFFFFFF0A00000B
S113387400000000280100002C01000030010000B9
S113388434010000380100003C0100000000000085
S1133894008000000000000000000001000000009F
S11338A4000000000001000000000000000000020D
S11338B400000000000000000002000000000000FE
S11338C400000003000000000000000000020000EB
S11338D400000000000001000400000000000000DB
S11338E4B805000037001D0006000100000000EBCD
S11338F402AF0B4001430154657374204661696C43
S113390465642121212C206C696E653A31303120A3
S11339140D0A004D7920536861646520436F6E7409
S1133924726F6C6C65722100455F4F535F49442D7F
S113393400455F4F535F4C494D495400455F4F5315
S11339445F53544154452D004F5353657276696354
S11339546549645F53657452656C416C61726D00B2
S1133964455F4F535F504152414D5F504F494E5450
S113397445522D004F535365727669636549645FFC
S1133984476574416C61726D003805C002240108F6
S1133994000700BB020100A5020100750203000830
S11339A40114043203A702AF0201005F02010063A1
S11339B40203007B020100F40189020100F401976F
S11339C4020100E8037B0289029702B905A70200F9
S11339D400DE02000000000000C105A7020000ECA4
S11339E402000000000000C905A70200001603003D
S11339F40000000000A702D105FFFF01000100B38D
S1133A04020400DE02EC0216032403BD02D50503FE
S1133A14D002DE02EC02FA02080316032403320382
S1133A24440392014001000200111380FF01440386
S1133A3492014A010100007107010101440392014A
S1133A4454010200003506010101440392015E01A0
S1133A540300006A050202014403920168010400A0
S1133A640096050202014403920172010500003329
S1133A7405037F01400390017C01060100C2050295
S1133A84020144039201860107030032100000017D
S1133A9439058000000000004F70656E696E672070
S1133AA44561737420626C696E6473004F70656E53
S1133AB46564204561737420626C696E64730043A9
S1133AC46F6E7472616374696E67204561737420E8
S1133AD4626C696E647300436F6E747261637465BF
S1133AE464204561737420626C696E6473004F7062
S1133AF4656E696E67205765737420626C696E64C1
S1133B0473004F70656E6564205765737420626C2E
S1133B14696E647300436F6E7472616374696E6773
S1133B24205765737420626C696E6473004F4E2071
S1133B34004F4646004C5558203A202533645720FC
S1133B4425336441202533644500534841444520CA
S1133B543A20452D257320572D2573004C49474899
S1133B6454203A20452D257320572D257300434CAA
S1133B744F434B203A20253032643A253032643A9C
S1133B8425303264250000000000710AAF0B120ACC
S10B3B94510AE409FE09F009DD
S9030000FC
