:100000000C94A4000C94CC000C94CC000C94CC0068
:100010000C94CC000C94CC000C94CC000C94CC0030
:100020000C94CC000C94F1020C94CC000C94FF14B2
:100030000C94CC000C94CC000C94CC000C94CC0010
:100040000C94A6090C94CC000C94490C0C947B0CD9
:100050000C94CC000C94CC000C94CC000C94CC00F0
:100060000C94CC000C94CC0007634236B79BD8A705
:100070001A39685618AEBAAB558C1D3CB7CC5763CD
:10008000BD6DEDFD753EF6177231BF000000803F7B
:1000900008000000BE922449123EABAAAA2ABECD97
:1000A000CCCC4C3E00000080BEABAAAAAA3E000009
:1000B0000000BF000000803F000000000008417801
:1000C000D3BB4387D1133D190E3CC3BD4282AD2B38
:1000D0003E68EC8276BED98FE1A93E4C80EFFFBE30
:1000E00001C4FF7F3F000000000000000008000284
:1000F00001000003040700000000000000000102EE
:1001000004081020408001020408102001020408A5
:100110001020040404040404040402020202020283
:10012000030303030303000000002300260029004B
:1001300000000000250028002B0000000000240023
:1001400027002A008B09AB0C11241FBECFEFD8E08B
:10015000DEBFCDBF14E0A0E0B1E0E2ECFCE302C002
:1001600005900D92AA3BB107D9F726E0AAEBB4E0BF
:1001700001C01D92A436B207E1F710E0C4EAD0E056
:1001800004C02197FE010E94811BC23AD107C9F722
:100190000E9418050C945F1E0C94FB142F923F9242
:1001A0004F925F926F927F928F929F92AF92BF9287
:1001B000CF92DF92EF92FF920F931F93CF93DF9333
:1001C000E42FF52F419050804F925F92E42FF52F4E
:1001D0004DB65EB6419250820C94EE00E62FF72F9A
:1001E000419050804DBE5EBE5F904F90E62FF72F3E
:1001F00041925082DF91CF911F910F91FF90EF902C
:10020000DF90CF90BF90AF909F908F907F906F9036
:100210005F904F903F902F900C943A12E62FF72F5B
:10022000419150814DBF5EBF0C9450122F923F926E
:100230004F925F926F927F928F929F92AF92BF92F6
:10024000CF92DF92EF92FF920F931F93CF93DF93A2
:10025000E42FF52F419050804F925F92E42FF52FBD
:100260004DB65EB6419250820C940E01E82FF92FE4
:10027000419150814DBF5EBFE62FF72F09940000DA
:1002800090E080E008950895CF93DF93EC0160E063
:100290008E810E949B0A81E090E00E94F00961E05B
:1002A0008E810E949B0A81E090E00E94F00960E04C
:1002B0008E810E949B0A84E690E0DF91CF910C949E
:1002C000F009CF92DF92EF92FF920F931F93CF939B
:1002D000DF936C017C0187E0E80EF11CD0E0C0E008
:1002E000062F10E0B8010C2E02C0759567950A9490
:1002F000E2F76170F70181917F010E949B0A2196CC
:10030000C430D10579F7C601DF91CF911F910F91CC
:10031000FF90EF90DF90CF900C944401CF92DF924A
:10032000EF92FF920F931F93CF93DF936C017C01A9
:1003300087E0E80EF11CD0E0C0E0062F10E0B80125
:100340000C2E02C0759567950A94E2F76170F7016B
:1003500081917F010E949B0A2196C830D10579F7CF
:10036000C601DF91CF911F910F91FF90EF90DF9029
:10037000CF900C9444011F93CF93DF93EC01162F81
:10038000642F8C810E949B0A8D818F3F19F060E061
:100390000E949B0A8F85612F84FF06C0CE01DF91EA
:1003A000CF911F910C948E0170E084E07595679554
:1003B0008A95E1F7CE010E946101612FCE01DF91A4
:1003C000CF911F910C94610140E00C94BB0161E05E
:1003D0000E94E40180ED97E00C94F009443008F0AD
:1003E00043E0FC012389421710F04FEF420FFC015C
:1003F000E40FF11D2489620F60680C94E401FC0194
:100400006089262F2460208B6C600C94E4010F938C
:100410001F93CF93DF93EC01423018F08F858860F3
:100420008F874B8B1C8A80E48D8B6E8B605C6F8B0F
:10043000222329F0413019F48F8584608F8761E091
:100440008C810E945F0A8D818F3F19F061E00E94CC
:100450005F0A61E08E810E945F0A8E0198012C1B69
:100460003D0B8F8584FD0DC084E090E00F5F1F4F32
:10047000281739074CF461E0F80186810E945F0A71
:10048000EDCF88E090E0F2CF80E593EC0E94F00998
:1004900060E08C810E949B0A60E08E810E949B0A32
:1004A0008D818F3F19F060E00E949B0A6F8564FD8B
:1004B00033C063E0CE010E94610184E991E10E94B2
:1004C000F00963E0CE010E94610184E991E10E949C
:1004D000F00963E0CE010E94610186E990E00E948C
:1004E000F00962E0CE010E9461016F856062CE0179
:1004F0000E94E40184E0888BCE010E94FF01CE01BE
:100500000E94E70182E0898B66E0CE01DF91CF9106
:100510001F910F910C94E4016062CE010E94E401EE
:1005200084E991E10E94F0096F856062CE010E942A
:10053000E40186E990E00E94F0096F856062CE01D7
:100540000E94E401D2CFCF92EF920F93FC0113826D
:10055000128283EB91E09183808364838FEF8583A4
:10056000468327830087E186C28613861486158614
:100570001686178620E041E060E1CF010F91EF90F1
:10058000CF900C940702EF92FF920F931F93CF939B
:10059000DF938C017A01677088E0689FB0011124B5
:1005A0006064C8010E94E401E701A8E0EA0EF11CC2
:1005B0006991D801ED91FC910190F081E02DC80185
:1005C0000995CE15DF05A1F7DF91CF911F910F910E
:1005D000FF90EF90089541E00E94BB0181E090E020
:1005E00008951F920F920FB60F9211242F933F93ED
:1005F0004F935F936F937F938F939F93AF93BF932B
:10060000EF93FF938091BC048F5F8093BC04E091D3
:10061000BD042091BC048E2F90E0FC01EE0FFF1F63
:10062000E80FF91FE254FB4F8181E091BD04821372
:100630001DC08E2F90E0FC01EE0FFF1FE80FF91F89
:10064000E254FB4F82818093B200FF91EF91BF9102
:10065000AF919F918F917F916F915F914F913F915A
:100660002F910F900FBE0F901F9018952091BC04F2
:100670008E2F90E0FC01EE0FFF1FE80FF91FE254F0
:10068000FB4F8181821708F7E091BD048E2F90E027
:10069000FC01EE0FFF1FE80FF91FE254FB4F8081B2
:1006A00085FF10C0E091BD048E2F90E0FC01EE0F9D
:1006B000FF1FE80FF91FE254FB4F808160E08F714C
:1006C0000E949B0A8091BD048F5F8093BD041092AD
:1006D000BC041092B2008091BD04882319F180916E
:1006E000BD048930F8F4E091BD048E2F90E0FC0148
:1006F000EE0FFF1FE80FF91FE254FB4F808185FFCB
:10070000A4CFE091BD048E2F90E0FC01EE0FFF1FFF
:10071000E80FF91FE254FB4F808161E08F710E9466
:100720009B0A93CF8091BD04893008F48ECF10923C
:10073000BD048BCFFC019091BB04983028F49F5FDF
:100740009093BB0490830895108208951F93CF93D4
:10075000DF93EC01162F8091BA04811122C0EEEBD9
:10076000F4E086ED94E03BE027E53483258333967F
:100770008E179F07D1F78EE38093BF041092BD04BC
:100780001092BC04109270001092B00082E080932E
:10079000B1001092B20081E087BB8093700080931B
:1007A000BA0488818823A1F061E0812F0E945F0A4A
:1007B000E8818E2F90E0FC01EE0FFF1FE80FF91F7C
:1007C000E254FB4F1F716081607E612B6062608329
:1007D0008881DF91CF911F910895DC01EC918FEF1B
:1007E0008E0F8830F8F4CB016B3C784014F08AEC23
:1007F00098E08E3E22E0920714F48EEE92E0089785
:10080000AC01440F452F441F550B2E2F30E0F9014A
:10081000EE0FFF1FE20FF31FE254FB4F4183880FDF
:1008200080958283089565E070E08BE195E00E94F9
:10083000A6036EEE72E08BE195E00E94ED0364E0AA
:1008400070E08AE195E00E94A6036EEE72E08AE114
:1008500095E00E94ED0320E044E064E182E095E051
:100860000E94070240E051E061E082E095E00E94D2
:10087000C30282E095E00E94E70160E083E10E940C
:100880005F0A60E082E10E945F0A61E083E00E940B
:100890005F0A61E087E00E945F0A60E083E00E94F7
:1008A0009B0A60E087E00E949B0AE9E6F0E0808115
:1008B00082608083E89A26E040E052EC61E070E0DC
:1008C00085E295E00E94E70B6BEB71E085E295E035
:1008D0000C94270D0F931F93CF93DF9300D0CDB7C8
:1008E000DEB78DB79EB79A8389838091D9049091A2
:1008F000DA04892BA9F489819A819093DA04809390
:10090000D904F8948AE49BE0892B11F00E944A0BE9
:1009100078940F900F90DF91CF911F910F910895D0
:100920002091D9043091DA0489819A8128173907F6
:1009300041F3F89480ED91E00E9420050AE41BE069
:1009400001151105E9F30E944A0BFACF0F931F938B
:10095000CF93DF93EC010E941B128C01C430D105B0
:1009600009F44CC0C8F4C130D10579F1C330D105C8
:10097000C1F14AE050E0BE0185E295E00E94D20D4F
:1009800063EF71E085E295E00E94140D0E941B1256
:100990004AE050E0BC011DC0C730D105C9F1CE30DE
:1009A000D10539F764E272E085E295E00E94140D0A
:1009B00006321105C1F568E372E085E295E0DF914A
:1009C000CF911F910F910C94270D4AE050E061E008
:1009D00070E085E295E0DF91CF911F910F910C942B
:1009E000D90D6CEE71E085E295E00E94140D4AE0AD
:1009F00050E0B80185E295E00E94D90D65EF71E005
:100A000085E295E0DF91CF911F910F910C94140D29
:100A100060E072E085E295E00E94140D6CE072E007
:100A20000832110551F2DF91CF911F910F91089576
:100A30000E94FB0980E00E94200F90E080E0089572
:100A4000F894FC0101900020E9F73197AF01481BB1
:100A5000590BBC0185E295E00E94D80C789408956A
:100A600080919C0190919D0101968C33910541F0FC
:100A700090939D0180939C0181E08093DB04089515
:100A800010929D0110929C0180919E0190919F0176
:100A900001968C33910529F090939F0180939E01DC
:100AA000EBCF10929F0110929E018091A001909136
:100AB000A10101968831910529F09093A1018093BD
:100AC000A001DACF1092A1011092A001D5CF8091A0
:100AD000E1048823C9F06CE573E085E295E00E94AB
:100AE000270D6AEC78E08BE195E00E94ED0360E76A
:100AF00073E085E295E00E94270D8091E10491E08A
:100B000089278093E104089563E873E085E295E026
:100B10000E94270D6EEE72E08BE195E00E94ED03DE
:100B20006BE973E0E6CF8091E0048823C9F062EBC3
:100B300073E085E295E00E94270D6AEC78E08AE197
:100B400095E00E94ED0366EC73E085E295E00E947B
:100B5000270D8091E00491E089278093E0040895B7
:100B600069ED73E085E295E00E94270D6EEE72E07C
:100B70008AE195E00E94ED036BE973E0E6CFCF9345
:100B8000DF9300D0CDB7DEB711E083E090E00E94A4
:100B90004510BE016F5F7F4F86E00E946011898122
:100BA00081FF1FC08091E1048823F1F16CE573E0BF
:100BB00085E295E00E94270D6AEC78E08BE195E0F4
:100BC0000E94ED0360E773E085E295E00E94270D47
:100BD0008091E10481278093E10482E090E00E940B
:100BE000D511898180FFD1CF8091E004882359F10C
:100BF00062EB73E085E295E00E94270D6AEC78E0F5
:100C00008AE195E00E94ED0366EC73E085E295E0F1
:100C10000E94270D8091E00481278093E00481E009
:100C200090E00E94D511B1CF63E873E085E295E0D2
:100C30000E94270D6EEE72E08BE195E00E94ED03BD
:100C40006BE973E0C1CF69ED73E085E295E00E9446
:100C5000270D6EEE72E08AE195E00E94ED036BE9EC
:100C600073E0D4CF8F929F92AF92BF92CF92DF92D8
:100C7000EF92FF920F931F93CF93DF93CDB7DEB721
:100C800064970FB6F894DEBF0FBECDBF40E060E0C2
:100C900082E095E00E94EE018090E6049090E704E7
:100CA000A090E804B090E904C090E204D090E3047E
:100CB000E090E404F090E504C501B4010E947B18C3
:100CC0007F936F93A7019601C501B4010E94981705
:100CD00020E030E040E05FE30E9468190E947B184A
:100CE0007F936F93C701B6010E947B187F936F9328
:100CF00089EF93E09F938F938E010F5F1F4F1F9398
:100D00000F930E94871BB80182E095E00E94140DAA
:100D100041E060E082E095E00E94EE010FB6F894B9
:100D2000DEBF0FBECDBF8091E10425EF33E0882305
:100D300011F021EF33E08091E004811189C085EF4B
:100D400093E03F932F939F938F938EE094E09F9334
:100D50008F931F930F930E94871BB80182E095E049
:100D60000E94140D42E060E082E095E00E94EE01F6
:100D700083E00E94C90A0FB6F894DEBF0FBECDBF54
:100D8000892B09F068C091EFE92E93E0F92E87E0F6
:100D90000E94C90A892B09F063C081EF93E0FF929A
:100DA000EF929F938F9380E294E09F938F931F9392
:100DB0000F930E94871BB80182E095E00E94140DFA
:100DC0000FB6F894DEBF0FBECDBF8091DB04882341
:100DD00051F143E060E082E095E00E94EE018091F5
:100DE0009D018F9380919C018F9380919F018F93A0
:100DF00080919E018F938091A1018F938091A0019A
:100E00008F9382E394E09F938F931F930F930E949D
:100E1000871BB80182E095E00E94140D0FB6F8948C
:100E2000DEBF0FBECDBF0E94131064960FB6F894BC
:100E3000DEBF0FBECDBFDF91CF911F910F91FF900D
:100E4000EF90DF90CF90BF90AF909F908F900895DC
:100E500081EF93E076CF85EFE82E83E0F82E97CFF1
:100E600085EF93E09CCFCF92DF92EF92FF92BC018F
:100E7000990F880B990B0E94B31820E030EC4FE7D4
:100E800054E40E94091820E030E040EA50E40E9457
:100E900068196B017C01AC019B0160E070E080EAA5
:100EA00090E40E949717A70196010E94091820E07C
:100EB00030E44CE955E40E94681922EC3FE245E930
:100EC0005FEB0E94D5192EE138E449E559E40E9410
:100ED0006819FF90EF90DF90CF900895CF92DF9246
:100EE000EF92FF92CF93DF938091DE049091DF0425
:100EF00004970CF05DC06AE474E085E295E00E941E
:100F0000140DE091DE04F091DF04EE0FFF1FE855B1
:100F1000FE4F608171814AE050E085E295E00E94D9
:100F2000D90DC091DE04D091DF0483E10E94F20A62
:100F3000CC0FDD1FC855DE4F99838883C091DE0436
:100F4000D091DF04FE01EE0FFF1FE855FE4F8081B8
:100F500091810E943307CC0FDD1FCC0FDD1FCA50DB
:100F6000DB4F688379838A839B8369E574E085E23C
:100F700095E00E94140DE091DE04F091DF04EE0F85
:100F8000FF1FEE0FFF1FEA50FB4F4081518162812E
:100F9000738122E030E085E295E00E94E20E8091CC
:100FA000DE049091DF0401969093DF048093DE04C9
:100FB0008091DC049091DD0404970CF05DC064E640
:100FC00074E085E295E00E94140DE091DC04F0915C
:100FD000DD04EE0FFF1FEE55FE4F608171814AE088
:100FE00050E085E295E00E94D90DC091DC04D091DB
:100FF000DD0482E10E94F20ACC0FDD1FCE55DE4FE8
:1010000099838883C091DC04D091DD04FE01EE0F4A
:10101000FF1FEE55FE4F808191810E943307CC0F58
:10102000DD1FCC0FDD1FC651DB4F688379838A83B8
:101030009B8363E774E085E295E00E94140DE091E4
:10104000DC04F091DD04EE0FFF1FEE0FFF1FE651F1
:10105000FB4F408151816281738122E030E085E263
:1010600095E00E94E20E8091DC049091DD040196EF
:101070009093DD048093DC042091FA043091FB040A
:101080004091FC045091FD046091F6047091F704C6
:101090008091F8049091F9040E9498172091FE0421
:1010A0003091FF0440910005509101050E9498176E
:1010B00020E030E040E450E40E9409186093E60428
:1010C0007093E7048093E8049093E9046EE774E07A
:1010D00085E295E00E94140D4091E6045091E704EA
:1010E0006091E8047091E90422E030E085E295E047
:1010F0000E94E20E2091EE043091EF044091F00442
:101100005091F1046091EA047091EB048091EC0439
:101110009091ED040E9498172091F2043091F3040D
:101120004091F4045091F5040E94981720E030E0BB
:1011300040E450E40E9409186093E2047093E304D1
:101140008093E4049093E5046DE874E085E295E013
:101150000E94140D4091E2045091E3046091E40474
:101160007091E50422E030E085E295E00E94E20E15
:101170008091DE049091DF04039721F41092DF0444
:101180001092DE048091DC049091DD04039721F439
:101190001092DD041092DC042091A0013091A10195
:1011A00080919E0190919F01223131050CF441C044
:1011B0004E970CF043C0C090E604D090E704E09056
:1011C000E804F090E90420E030E04AEF53E4C7017E
:1011D000B6010E94041887FF68C08091E104811164
:1011E00084C062E070E086E00E94CC10C090E2040F
:1011F000D090E304E090E404F090E50420E030E0D7
:101200004AEF53E4C701B6010E94041887FF5DC08E
:101210008091E004811174C061E070E086E00E947A
:10122000CC10DF91CF91FF90EF90DF90CF900C9496
:10123000131028303105B4F54E9734F461E083E0A3
:101240000E949B0A61E02AC02730310509F0B3CF24
:1012500020E030E048E453E46091E6047091E70454
:101260008091E8049091E9040E94041861E0181646
:101270000CF460E083E00E949B0A20E030E048E448
:1012800053E46091E2047091E3048091E40490914E
:10129000E5040E94041860E01816A4F687E00E9496
:1012A0009B0A89CF4E97A4F686CF20E030E04AEF24
:1012B00053E4C701B6010E94631987FD97CF80915F
:1012C000E104882309F492CF8CCF20E030E04AEF8C
:1012D00053E4C701B6010E94631987FDA2CF809134
:1012E000E004882309F49DCF97CF20E030E04AEF57
:1012F00053E4C701B6010E94631987FD77CF71CF10
:1013000020E030E04AEF53E4C701B6010E946319C0
:1013100087FD87CF81CFCF92EF920F938BE195E03E
:101320000E949A038AE195E00E949A038DE0C82EFC
:101330009CE0E92E0BE02AE049E068E082E095E0DD
:101340000E94A3020F91EF90CF9008951F920F92E9
:101350000FB60F9211242F933F938F939F93AF93C8
:10136000BF9380911D0590911E05A0911F05B0911E
:10137000200530911C0523E0230F2D3758F50196E9
:10138000A11DB11D20931C0580931D0590931E0582
:10139000A0931F05B093200580912105909122050F
:1013A000A0912305B09124050196A11DB11D809344
:1013B000210590932205A0932305B0932405BF91A6
:1013C000AF919F918F913F912F910F900FBE0F90F2
:1013D0001F90189526E8230F0296A11DB11DD2CFAC
:1013E0008230910538F0880F991F880F991F059753
:1013F0000197F1F70895789484B5826084BD84B52F
:10140000816084BD85B5826085BD85B5816085BDFF
:10141000EEE6F0E0808181608083E1E8F0E0108218
:10142000808182608083808181608083E0E8F0E059
:10143000808181608083E1EBF0E080818460808343
:10144000E0EBF0E0808181608083EAE7F0E080817A
:1014500084608083808182608083808181608083DA
:101460008081806880831092C1000895833081F06C
:1014700028F4813099F08230A9F008958730A9F0DE
:101480008830C9F08430B1F4809180008F7D03C032
:10149000809180008F7780938000089584B58F7746
:1014A00084BD089584B58F7DFBCF8091B0008F7788
:1014B0008093B00008958091B0008F7DF9CFCF93D5
:1014C000DF9390E0FC01E250FF4F24918E5E9E4F2F
:1014D000FC0184918823C9F090E0880F991FFC01DA
:1014E000E65CFE4FA591B491FC01E05DFE4FC59115
:1014F000D49161110DC09FB7F8948C9120958223EF
:101500008C938881282328839FBFDF91CF910895F2
:10151000623051F49FB7F8943C91822F80958323D9
:101520008C93E8812E2BEFCF8FB7F894EC912E2B74
:101530002C938FBFEACF1F93CF93DF93282F30E0F8
:10154000F901E651FF4F8491F901E250FF4FD49128
:10155000F901EE5EFE4FC491CC23A9F0162F811144
:101560000E94360AEC2FF0E0EE0FFF1FE05DFE4F09
:10157000A591B4918FB7F894EC91111108C0D09552
:10158000DE23DC938FBFDF91CF911F910895DE2B77
:10159000F8CFCF93DF93282F30E0F901E651FF4FCA
:1015A0008491F901E250FF4FD491F901EE5EFE4FB4
:1015B000C491CC23A1F081110E94360AEC2FF0E0F7
:1015C000EE0FFF1FEA5DFE4FA591B491EC91ED2364
:1015D00081E090E009F480E0DF91CF91089580E010
:1015E00090E0FACF8E3008F08E502091AE0190E45A
:1015F000299F900111248770822B80937C00809119
:101600007A00806480937A0080917A0086FDFCCF16
:1016100080917800909179000895FC01918D228D40
:10162000892F90E0805C9F4F821B91098F739927CF
:101630000895FC01918D828D981731F0828DE80F0D
:10164000F11D858D90E008958FEF9FEF0895FC01C7
:10165000918D828D981761F0A28DAE0FBF2FB11DB5
:101660005D968C91928D9F5F9F73928F90E008950D
:101670008FEF9FEF0895FC01538D448D252F30E0AF
:10168000842F90E0821B930B541710F0CF9608958F
:101690000197089581EA9CE0892B49F080E090E071
:1016A000892B29F00E94A10C81110C94000008954F
:1016B000FC01A48DA80FB92FB11DA35ABF4F2C91C7
:1016C000848D90E001968F739927848FA689B789BE
:1016D0002C93A089B1898C91837080648C93938DB5
:1016E000848D981306C00288F389E02D80818F7D58
:1016F00080830895CF93DF93EC01888D8823B9F020
:10170000AA89BB89E889F9898C9185FD03C080810C
:1017100086FD0DC00FB607FCF7CF8C9185FFF2CF89
:10172000808185FFEDCFCE010E94580BE9CFDF917C
:10173000CF910895EF92FF920F931F93CF93DF9372
:10174000EC0181E0888F9B8D8C8D98131AC0E889FD
:10175000F989808185FF15C09FB7F894EE89FF89CC
:101760006083E889F98980818370806480839FBF6A
:1017700081E090E0DF91CF911F910F91FF90EF906A
:101780000895F62E0B8D10E00F5F1F4F0F7311277A
:10179000E02E8C8D8E110CC00FB607FCFACFE889B5
:1017A000F989808185FFF5CFCE010E94580BF1CFDA
:1017B000EB8DEC0FFD2FF11DE35AFF4FF0829FB729
:1017C000F8940B8FEA89FB8980818062CFCFCF921A
:1017D000DF92EF92FF921F93CF93DF93EC016A01A8
:1017E0007B01122FE889F98982E08083C11481EEA0
:1017F000D806E104F104A1F060E079E08DE390E027
:10180000A70196010E945F1B21503109410951092E
:101810005695479537952795211580E1380798F01B
:10182000E889F989108260E874E88EE190E0A70108
:1018300096010E945F1B21503109410951095695BB
:10184000479537952795EC85FD853083EE85FF8597
:101850002083188EEC89FD891083EA89FB898081B9
:1018600080618083EA89FB89808188608083EA893E
:10187000FB89808180688083EA89FB8980818F7DF4
:101880008083DF91CF911F91FF90EF90DF90CF90F9
:1018900008951F920F920FB60F9211242F938F93DA
:1018A0009F93EF93FF93E0913505F091360580818A
:1018B000E0913B05F0913C0582FD1BC09081809139
:1018C0003E058F5F8F7320913F05821741F0E091B5
:1018D0003E05F0E0EB5DFA4F958F80933E05FF915A
:1018E000EF919F918F912F910F900FBE0F901F90AE
:1018F00018958081F4CF1F920F920FB60F9211248A
:101900002F933F934F935F936F937F938F939F9307
:10191000AF93BF93EF93FF9385E295E00E94580B3E
:10192000FF91EF91BF91AF919F918F917F916F91B7
:101930005F914F913F912F910F900FBE0F901F908D
:10194000189585E295E00E940D0B21E0892B09F4A2
:1019500020E0822F0895E5E2F5E01382128288EEFE
:1019600093E0A0E0B0E084839583A683B78380EA08
:1019700094E09183808385EC90E09587848784EC64
:1019800090E09787868780EC90E0918B808B81EC4C
:1019900090E0938B828B82EC90E0958B848B86EC2D
:1019A00090E0978B868B118E128E138E148E089575
:1019B000AF92BF92CF92DF92EF92FF920F931F935D
:1019C000CF93DF936C017B018B01040F151FEB019B
:1019D0005E01AE18BF08C017D10759F06991D60152
:1019E000ED91FC910190F081E02DC6010995892BC4
:1019F00079F7C501DF91CF911F910F91FF90EF9083
:101A0000DF90CF90BF90AF900895FB010190002030
:101A1000E9F73197AF01461B570BDC01ED91FC91C3
:101A20000280F381E02D09946115710511F00C9489
:101A3000050D90E080E00895DC01ED91FC910190AE
:101A4000F081E02D099469EE71E00C94050D0F937F
:101A50001F93CF93DF938C01D0E0C0E06115710537
:101A600019F00E94050DEC01C8010E94230D8C0F96
:101A70009D1FDF91CF911F910F9108958F929F929B
:101A8000AF92BF92EF92FF920F931F93CF93DF938A
:101A9000CDB7DEB7A1970FB6F894DEBF0FBECDBFAE
:101AA0007C01FA01CB0119A2223008F42AE08E0150
:101AB0000F5D1F4F822E912CB12CA12CBF01A501CF
:101AC00094010E945F1BF901CA016A300CF5605D48
:101AD000D8016E938D01232B242B252B79F790E0D1
:101AE00080E0109721F0BD01C7010E94050DA1966D
:101AF0000FB6F894DEBF0FBECDBFDF91CF911F911F
:101B00000F91FF90EF90BF90AF909F908F900895AE
:101B1000695CDECFCF92DF92EF92FF920F931F931B
:101B2000CF93DF932115310581F4DC01ED91FC9118
:101B30000190F081E02D642FDF91CF911F910F91E3
:101B4000FF90EF90DF90CF9009942A30310501F596
:101B50002AE077FF1DC06A017B01EC016DE20E9463
:101B60001C0D8C0144275527BA014C195D096E09DB
:101B70007F092AE0CE010E943E0D800F911FDF9168
:101B8000CF911F910F91FF90EF90DF90CF9008952C
:101B9000DF91CF911F910F91FF90EF90DF90CF9049
:101BA0000C943E0D9A01AB01770F660B770B0C94EA
:101BB0008A0D0F931F93CF93DF93EC010E94D20DF8
:101BC0008C01CE010E94230D800F911FDF91CF91D8
:101BD0001F910F9108952115310541F4DC01ED911C
:101BE000FC910190F081E02D642F09940C943E0D3E
:101BF0009A01AB0170E060E00C94EB0D2F923F92E4
:101C00004F925F926F927F928F929F92AF92BF920C
:101C1000CF92DF92EF92FF921F93CF93DF93EC016D
:101C20006A017B01722EAB019601CB01B6010E94C5
:101C3000251A6EEA74E0811126C046015701E89426
:101C4000B7F82FEF3FEF4FE75FE7C501B4010E9400
:101C5000251A81110CC02FEF3FEF4FE75FE7C50159
:101C6000B4010E94041862EB74E0181664F02FEFC0
:101C70003FEF4FE75FE4C701B6010E9463191816F2
:101C8000B4F466EB74E0CE01DF91CF911F91FF9029
:101C9000EF90DF90CF90BF90AF909F908F907F900C
:101CA0006F905F904F903F902F900C94050D2FEF09
:101CB0003FEF4FE75FECC701B6010E94041887FDB4
:101CC000E0CF20E030E0A901C701B6010E9404186E
:101CD000312C212C87FF09C06DE2CE010E941C0D22
:101CE0001C01F7FAF094F7F8F09410E060E070E06F
:101CF00080E09FE3711641F020E030E040E251E4E3
:101D00000E9409181F5FF6CFA70196010E9498173D
:101D10002B013C010E9482184B015C012AE0BC01AE
:101D2000A401CE010E943E0D7C01E20CF31C1123A4
:101D3000B1F1C501B4010E94B1189B01AC01C3010E
:101D4000B2010E9497174B015C016EE2CE010E9426
:101D50001C0DE80EF91E115010F120E030E040E2B9
:101D600051E4C501B4010E9468192B013C010E9495
:101D700082184B014AE050E0CE010E94F80DE80EB7
:101D8000F91EB40190E080E00E94B1189B01AC0103
:101D9000C301B2010E9497174B015C01DCCFC70160
:101DA000DF91CF911F91FF90EF90DF90CF90BF9088
:101DB000AF909F908F907F906F905F904F903F90EB
:101DC0002F9008950F931F93CF93DF93EC010E9400
:101DD000FE0D8C01CE010E94230D800F911FDF911B
:101DE000CF911F910F910895FC01818D81110BC03E
:101DF000828D811108C021E090E0838D811101C0A6
:101E000020E0822F089581E090E008950F931F93C2
:101E1000CF93DF93EC010D891E890330110559F032
:101E2000CB0123E030E03E8B2D8B7C876B870E94BB
:101E3000A6041E8B0D8BDF91CF911F910F910895FA
:101E40004F925F926F927F928F929F92AF92BF92CA
:101E5000CF92DF92EF92FF920F931F93CF93DF9376
:101E600000D0CDB7DEB7882E0091630210916402D6
:101E7000FFB6F894D80118968D919C911997892BEB
:101E800009F0B0C08DEF94E19A8389830E943D15DB
:101E9000A0906702B090680281E090E0F80191871D
:101EA00080878286E588F68887E090E0968B858B30
:101EB0000E941304D8015696FC92EE925597E0903A
:101EC0006F02F0907002D12CC12CB4E08B9E4001C7
:101ED0001124E80CF91C3701E2E06E0E711C46E09B
:101EE000542EF30180819181C816D906E0F1E0906B
:101EF0006B02F0906C023801F2E06F0E711CD12C75
:101F0000C12CE80CF91C270182E0480E511C8824E2
:101F10008394912CF20180819181C816D906E8F151
:101F2000D80118968D919C911997019731F482E010
:101F300090E019969C938E931897F801808591856F
:101F4000029741F4D50112966D917C91AB01C501C8
:101F50000E941601F80180859185029709F4789412
:101F600090E080E04DC0D701ED91FC915C9CC001F8
:101F70005D9C900D1124E80FF91FA081B18124818F
:101F8000358142815381BD0112968D919C910E94B1
:101F9000EA14BFEFCB1ADB0AA4CFD701ED91FC9175
:101FA000C601880F991FE80FF91F40815181DA019E
:101FB0001496ED91FC9180818F5F80839382828261
:101FC000F80164817581DB018D919C911197958356
:101FD00084831D921C92C3010E943A13BFEFCB1A57
:101FE000DB0A98CF88E390E01E969C938E931D9712
:101FF00061E070E0C8010E94060FFFBE81E090E042
:102000000F900F90DF91CF911F910F91FF90EF9064
:10201000DF90CF90BF90AF909F908F907F906F9008
:102020005F904F9008951F93CF93DF938091630249
:1020300090916402DC01ED91FC9127813085223082
:10204000310588F4A481B58114962D913C91C6E0A8
:10205000D0E0232B51F48FB7F89462E272E18281D1
:1020600093810E943601C2E0D0E01FB7F89422E0CD
:1020700030E0FC0136872587BE010E94060F1FBF96
:10208000CE01DF91CF911F9108959F92AF92BF92A1
:10209000CF92DF92EF92FF920F931F93CF93DF9334
:1020A00000D0CDB7DEB76C01E0906302F09064021F
:1020B000C7010E94F40E892B09F045C0D701AD90ED
:1020C000BC90F5018781908502E010E08230910597
:1020D000E0F504811581D80114962D913C91159756
:1020E000232B09F053C0019709F053C018968D9126
:1020F0009C918C219D21892B19F59FB6F894F801AC
:10210000D782C682AE014F5F5F4F63E672E08DE417
:1021100092E00E94D513E981FA81D70114962D919E
:102120003C911597318320831596FC93EE93149779
:10213000BC01C5010E944915F801178216829FBE95
:1021400010E000E014C00CE010E0BFB6F89482E2AA
:1021500090E0D7011E969C938E931D975096DC922B
:10216000CE921F97B801C7010E94060FBFBEC801DB
:102170000F900F90DF91CF911F910F91FF90EF90F3
:10218000DF90CF90BF90AF909F90089506E010E051
:10219000DCCF01E010E0D9CFDF92EF92FF920F93F6
:1021A0001F93CF93DF93182F7B01C0916302D091CF
:1021B0006402CE010E94F40E212F30E0892B09F039
:1021C00076C0E881F98187819085039708F072C015
:1021D00080915302909154022817390708F06DC07E
:1021E000E0914F02F0915002C901880F991FE80F4A
:1021F000F91FA081B1811496ED91FC9115971FB73D
:10220000F89417968D919C911897019799F01FBF9C
:1022100001E010E0DFB6F8948CE190E09E878D87B6
:10222000388B2F87FA8AE98AB801CE010E94060FFF
:10223000DFBE34C0428153814115510521F41FBFD7
:1022400007E010E0E7CF808591858E299F2991874F
:10225000808786819781E822F922EF28E1F04330D8
:102260005105C9F4EC81FD81808191819D838C832E
:1022700011821082B383A283AF0163E672E08DE422
:1022800092E00E94FA13892B31F063E672E08DE44C
:1022900092E00E94A9141FBF10E000E0C801DF9186
:1022A000CF911F910F91FF90EF90DF9008950CE078
:1022B00010E0B0CF02E010E0ADCF03E010E0AACF15
:1022C000DF92EF92FF920F931F93CF93DF93C82F6C
:1022D0007B010091630210916402C8010E94F40E18
:1022E0002C2F30E0892BE1F5D801ED91FC9187810D
:1022F0009085039708F04DC080915302909154024D
:102300002817390708F048C0E0914F02F0915002B9
:10231000C901880F991FE80FF91F0190F081E02D86
:1023200087819085C1E0D0E00197E1F40480F581D8
:10233000E02D82819381892B91F1E114F10491F1D7
:1023400080859185F70191838083D0E0C0E0CE0144
:10235000DF91CF911F910F91FF90EF90DF90089543
:10236000CCE0D0E0DFB6F89480E290E0D8011E9691
:102370009C938E931D9750963C932E931F97529645
:10238000FC92EE925197BE01C8010E94060FDFBE7B
:10239000DECFC2E0D0E0E6CFC3E0D0E0E3CFC7E0DD
:1023A000D0E0E0CFCEE0D0E0DDCFDF92EF92FF9241
:1023B0000F931F93CF93DF937C01009163021091E1
:1023C0006402C8010E94F40E892B21F5D801ED9119
:1023D000FC9187819085C2E0D0E082309105E0F4E5
:1023E000C1E0D0E00197C1F40480F581E02DE094D4
:1023F000F09480859185E822F922F186E086D0E08C
:10240000C0E0CE01DF91CF911F910F91FF90EF902F
:10241000DF900895CCE0D0E0DFB6F8948EE190E054
:10242000F80196878587F08AE786BE01C8010E9479
:10243000060FDFBEE6CFE0916302F091640285856E
:1024400096850895CF93DF9300D0CDB7DEB7AE0168
:102450004F5F5F4F63E672E08DE492E00E942C14C0
:10246000BC0189819A810E9464150F900F90DF91C1
:10247000CF910895E0916302F0916402DC01179618
:102480008D919C918230910528F481E090E0968BAB
:10249000858B089582309105D1F38AE090E0F7CFE3
:1024A000EC01EC81FD8111810E943A121F3F09F07D
:1024B0007894E985FA8509958FB7F89462E272E11C
:1024C0008A819B810E9436010F931F93CF93DF93E4
:1024D000CFB7F89463E672E08DE492E00E94A9140D
:1024E000CFBF0091630210916402C0916502D09148
:1024F0006602F801808591858230910551F08091C6
:10250000670290916802DF91CF911F910F910C9417
:102510007A15209789F3FE010995EBCF0F931F934E
:10252000CF93DF93EC01A881B981EB01E881F981B8
:102530001696CD91DC9117972097C1F18A819B81E6
:10254000309709F43FC0EC010C811D812281338159
:10255000E9014C815D81E8013981EA012981321765
:1025600088F522E030E0E8013B832A832081318135
:10257000EB0139832883C281D3812C813D8116965A
:102580004D915C911797518340831796FC93EE937E
:102590001697CD93DC934C85F9015181541708F4BB
:1025A0004183DF91CF911F910F910895309751F0A2
:1025B000EC018C819D81EC014C815D8122E030E059
:1025C000EA01D2CF90E080E0ECCFCF92DF92EF92A1
:1025D000FF920F931F93CF93DF93EB01AA81BB81EF
:1025E0001496ED91FC9115974115510501F1228149
:1025F000338122303105D8F01B962C91DC01ED910E
:10260000FC91B0E0A0E03097A1F4109769F16D93D0
:102610007C9390E080E0EB01F983E883DF91CF9138
:102620001F910F91FF90EF90DF90CF90089521813F
:10263000E5CF02811381E801CC80DD804115510591
:1026400081F0E601EA80FB80D2E0ED16F10448F06B
:10265000E8013B853217C8F2DF010190F081E02DDF
:10266000D2CFE6013981F6CFDC016D937C9381E016
:1026700090E0D1CFFB015383428341E050E00C94C2
:10268000E512EF92FF920F931F93CF93DF938C018C
:10269000FC01C081D181EE80FF80F70180819181B2
:1026A0009F838E83C8010E948E12892B41F4EE8194
:1026B000FF81309761F08281938199838883C7017C
:1026C000DF91CF911F910F91FF90EF900895F80146
:1026D00084819581F2CFCF92DF92EF92FF920F9398
:1026E0001F93CF93DF93DA011496CD91DC91159768
:1026F00098811D968C91981708F054C0DB01ED91DC
:10270000FC9100811181D8011496ED90FC909F5F9F
:102710009883C480D580D6016D917C91232B69F17B
:10272000D70111969C9111978981981730F575837F
:10273000648382E090E013969C938E931297D60167
:1027400013965C934E931297868197818D939C93F9
:10275000D782C6825183408319861886BA01C80180
:102760000E94491590E080E0DF91CF911F910F9179
:10277000FF90EF90DF90CF9008958A819B81892B05
:1027800031F481E090E09B838A83198618867583F3
:102790006483D6011D921C92B601CF0102960E945D
:1027A0003A13E0CF84E090E0DFCFEF92FF920F93F7
:1027B0001F93CF93DF93CB017A01DB01CD91DC91A5
:1027C000FE0101911191BF010E944113D7018D9328
:1027D0009C93D8011496ED91FC9183E090E0938353
:1027E000828388819981DF91CF911F910F91FF9012
:1027F000EF9008950F931F93CF93DF93FA01DB01BE
:102800000D911C9142815381DA011496CD91DC9196
:10281000159782E090E09B838A831B968C91898335
:10282000BF01C80102960E943A13019791F4D801A2
:10283000ED91FC910480F581E02D81E090E03981FB
:102840002181231708F080E0DF91CF911F910F9134
:10285000089580E090E0F8CFAF92BF92CF92DF92E0
:10286000EF92FF920F931F93CF93DF935B01DB01F6
:10287000CD91DC91FE01019111916F01D801149667
:10288000ED90FC90FA0111830083D70112968D918F
:102890009C910497A9F5B601C5010E944113AC01B2
:1028A000888199810817190731F1D8011496ED91A3
:1028B000FC9115971B962C91218320812150208318
:1028C000211114C0138212822C813D81DA012D93D3
:1028D0003C935D834C83DF91CF911F910F91FF90CB
:1028E000EF90DF90CF90BF90AF90089521E030E05F
:1028F00033832283E9CFF701208121502083E4CF65
:102900006E817F81FB01808191819F838E83D801BD
:102910001B968C91F701818381E090E09383828301
:102920008081813011F411861086A801C6010E94B1
:102930003A13B601C5010E948E12892B39F4EE813B
:10294000FF818281938199838883C5CF8881998112
:10295000C2CFCF93DF93CB01FB01C081D181BE01F8
:102960006E5F7F4F0E948E12009749F068817981D7
:102970000E94491581E090E0DF91CF91089590E0A9
:1029800080E0FACFCF93DF93DB01ED91FC91808162
:10299000918126813781EC01AC81BD8162E070E0DC
:1029A00013967C936E93129751834083A481B581D3
:1029B0006D917C91119775836483B783A683139679
:1029C0005C934E9312972D933C93BA01DF91CF9174
:1029D0000C944915DB01ED91FC91A481B581AB2BE1
:1029E00039F4378326830E94E01590E080E0089553
:1029F00087E090E00895F894FFCFE6EF08958F9375
:102A00009F9380E00E9407159F918F9118951F92C8
:102A10000F920FB60F9211242F933F934F935F9312
:102A20006F937F93AF93BF93EF93FF93E0914F0228
:102A3000F091500290E0880F991FE80FF91F408134
:102A40005181DA011496ED91FC9180818F5F808332
:102A500063E672E08DE492E00E94C214FF91EF9170
:102A6000BF91AF917F916F915F914F913F912F9166
:102A70000F900FBE0F901F90089568EE73E080E0F6
:102A800090E00C9439178091690290916A020C943D
:102A90000016FB01A481B58112962D913C911397EC
:102AA00044E050E013965C934E931297DC0112962B
:102AB0004D915C9162817381CF012230310511F417
:102AC0000C94CE000C941601CB01DB011496ED9111
:102AD000FC9115972281338144E050E05383428377
:102AE00012966D917C912230310511F40C94EE0018
:102AF0000C940E01DC0112966D917C911397ED916F
:102B0000FC9140815181DB01ED91FC912289338957
:102B10002115310519F04217530729F4DB01ED9314
:102B2000FC930C94EE00F901F1CFEF92FF920F931A
:102B30001F93CF93DF93DC018D919C91DC01ED918C
:102B4000FC91119712960D911C91DB01CD91DC91B6
:102B500021E030E03D832C835B834A8330E020E03A
:102B60003097E1F0A081B1811296ED90FC9013971F
:102B70000E151F0568F44E155F0518F404171507A8
:102B800068F0FC901196AC919F01EF2DFA2FE8CFE1
:102B90000417150718F04E155F0598F72115310534
:102BA00019F0D9018D919C91DC016D937C93F9838F
:102BB000E883DF91CF911F910F91FF90EF900895DF
:102BC000CF93DF93DC011296ED91FC9113970D905A
:102BD000BC91A02D12962D913C91DF01A41BB50B49
:102BE000A217B30730F0420F531FDF91CF910C941F
:102BF000951541505109420F531F4E1B5F0BF5CFE6
:102C00002F923F924F925F926F927F928F929F92FC
:102C1000AF92BF92CF92DF92EF92FF920F931F93EA
:102C2000CF93DF9300D000D0CDB7DEB7DC010D919C
:102C30001C911197F8012281338112964D915C917C
:102C40002417350708F45AC01382128230E020E0BE
:102C5000F8010190F081E02DFC83EB83309709F4BB
:102C600091C00190F081E02D4281538142175307BA
:102C700009F088C0AB81BC812D913C91F901A08104
:102C8000B181109749F06D917C911197FB016281A0
:102C900073814617570781F32C01F90111821082C5
:102CA000F801B183A083E0906302F09064023701E1
:102CB000670183E0282E312CAB81BC81AD90BC90A4
:102CC000F501F081F983D5011196BC91BA83F50124
:102CD00086809780AB81BC811C968D919C918130C0
:102CE000910509F466C078F08230910509F49FC01F
:102CF000039709F4A3C010E000E012C02F5F3F4F1C
:102D000033832283A5CFEB81FC814681578130E05C
:102D100020E063E672E08DE492E00E946B138C0188
:102D20008114910409F49FC0A4016B817C81C201CC
:102D30000E94E01501151105E1F0BFB6F894F60107
:102D40000588F689E02DFC83EB83339789F0D60163
:102D500056963C922E9255971C961C930E931B9759
:102D6000C8010E94A6044B815C81F601568B458BFD
:102D7000BFBE59815B838A818C83AB81BC81AB2BC5
:102D800009F09ACF0F900F900F900F90DF91CF9195
:102D90001F910F91FF90EF90DF90CF90BF90AF9079
:102DA0009F908F907F906F905F904F903F902F906B
:102DB0000895AB81BC8116966D917C91DB011496D0
:102DC000ED91FC914281538107E010E041155105DE
:102DD00009F4A6CFAB81BC811A968D919C91208578
:102DE0003185282B392B3187208726813781822313
:102DF0009323892B09F47FCF4330510509F07BCF12
:102E0000D7011496ED91FC911597808191811596CB
:102E10009C938E9314971182108273836283AF0107
:102E200063E672E08DE492E00E94FA1364CFEB81D6
:102E3000FC81808591850E9400165DCFD301559657
:102E40000D911C915697E9E0F0E05696FC93EE93B5
:102E50005597AB81BC811496ED91FC910995F301D6
:102E6000168B058B48CFD50115961C921E92149790
:102E700061CF109281001092800010928200109217
:102E8000850010928400611520E17207810591058B
:102E9000A0F4E4E0660F771FEA95E1F7615071094D
:102EA00081E092E096BB90936F00709389006093ED
:102EB00088008860809381000895611520E872077A
:102EC0008105910530F4660F771F6150710982E02A
:102ED000E8CF6C3F2FEF720723E08207910558F48B
:102EE00042E096958795779567954A95D1F7615019
:102EF000710983E0D6CF6115710520E18207910544
:102F000058F434E096958795779567953A95D1F77B
:102F10006150710984E0C5CF26E096958795779535
:102F200067952A95D1F76150710985E0BACF50585D
:102F3000BB27AA270E94AF170C9429190E941B19BE
:102F400038F00E94221920F039F49F3F19F426F43A
:102F50000C9418190EF4E095E7FB0C941219E92F64
:102F60000E943A1958F3BA17620773078407950746
:102F700020F079F4A6F50C945C190EF4E0950B2E74
:102F8000BA2FA02D0B01B90190010C01CA01A001BB
:102F90001124FF27591B99F0593F50F4503E68F116
:102FA0001A16F040A22F232F342F4427585FF3CF57
:102FB000469537952795A795F0405395C9F77EF428
:102FC0001F16BA0B620B730B840BBAF09150A1F071
:102FD000FF0FBB1F661F771F881FC2F70EC0BA0FF7
:102FE000621F731F841F48F4879577956795B7957F
:102FF000F7959E3F08F0B0CF9395880F08F099277A
:10300000EE0F9795879508950E94EE1808F481E0D9
:1030100008950E941D180C9429190E94221958F035
:103020000E941B1940F029F45F3F29F00C941219FB
:1030300051110C945D190C9418190E943A1968F3F7
:103040009923B1F3552391F3951B550BBB27AA2761
:1030500062177307840738F09F5F5F4F220F331F9B
:10306000441FAA1FA9F335D00E2E3AF0E0E832D063
:1030700091505040E695001CCAF72BD0FE2F29D066
:10308000660F771F881FBB1F261737074807AB0738
:10309000B0E809F0BB0B802DBF01FF2793585F4FAD
:1030A0003AF09E3F510578F00C9412190C945D197A
:1030B0005F3FE4F3983ED4F3869577956795B7958F
:1030C000F7959F5FC9F7880F911D9695879597F99A
:1030D0000895E1E0660F771F881FBB1F6217730713
:1030E0008407BA0720F0621B730B840BBA0BEE1F28
:1030F00088F7E09508950E9482186894B1110C94A5
:103100005D1908950E94421988F09F5798F0B92FD1
:103110009927B751B0F0E1F0660F771F881F991F0C
:103120001AF0BA95C9F714C0B13091F00E945C1939
:10313000B1E008950C945C19672F782F8827B85F49
:1031400039F0B93FCCF3869577956795B395D9F764
:103150003EF490958095709561957F4F8F4F9F4F6E
:103160000895E89409C097FB3EF49095809570957A
:1031700061957F4F8F4F9F4F9923A9F0F92F96E9C3
:10318000BB279395F695879577956795B795F11138
:10319000F8CFFAF4BB0F11F460FF1BC06F5F7F4FD5
:1031A0008F4F9F4F16C0882311F096E911C07723E7
:1031B00021F09EE8872F762F05C0662371F096E8F0
:1031C000862F70E060E02AF09A95660F771F881FBF
:1031D000DAF7880F9695879597F90895990F000863
:1031E000550FAA0BE0E8FEEF16161706E807F907D9
:1031F000C0F012161306E407F50798F0621B730B74
:10320000840B950B39F40A2661F0232B242B252BF4
:1032100021F408950A2609F4A140A6958FEF811D97
:10322000811D089597F99F6780E870E060E0089538
:103230009FEF80EC089500240A94161617061806CE
:103240000906089500240A941216130614060506AA
:103250000895092E0394000C11F4882352F0BB0F3B
:1032600040F4BF2B11F460FF04C06F5F7F4F8F4F9E
:103270009F4F089557FD9058440F551F59F05F3FD9
:1032800071F04795880F97FB991F61F09F3F79F088
:1032900087950895121613061406551FF2CF46950A
:1032A000F1DF08C0161617061806991FF1CF86958C
:1032B0007105610508940895E894BB276627772770
:1032C000CB0197F908950E94EE1808F48FEF089546
:1032D0000E947B190C9429190E941B1938F00E9436
:1032E000221920F0952311F00C9412190C9418193E
:1032F00011240C945D190E943A1970F3959FC1F343
:10330000950F50E0551F629FF001729FBB27F00D93
:10331000B11D639FAA27F00DB11DAA1F649F6627E8
:10332000B00DA11D661F829F2227B00DA11D621F37
:10333000739FB00DA11D621F839FA00D611D221FF1
:10334000749F3327A00D611D231F849F600D211DD5
:10335000822F762F6A2F11249F5750409AF0F1F058
:1033600088234AF0EE0FFF1FBB1F661F771F881FC1
:1033700091505040A9F79E3F510580F00C941219CE
:103380000C945D195F3FE4F3983ED4F386957795EE
:103390006795B795F795E7959F5FC1F7FE2B880F67
:1033A000911D9695879597F90895FA01EE0FFF1FE5
:1033B000309621053105A1F16115710561F4803860
:1033C000BFE39B0749F168949038810561F080382C
:1033D000BFEF9B0741F099234AF5FF3FE105310517
:1033E000210519F1E8940894E795D901AA2329F455
:1033F000AB2FBE2FF85FD0F310C0FF5F70F4A6951F
:10340000E0F7F73950F019F0FF3A38F49F779F93BF
:103410000DD00F9007FC9058089546F00C941819A1
:1034200060E070E080E89FE308954FE79F775F9347
:103430004F933F932F930E94D51A2F913F914F9115
:103440005F910E9468190C94321A0E94EE18880B42
:10345000990B089529F416F00C9412190C945C1928
:103460000C9418190E944219A8F39638A0F707F88F
:103470000F92E8942BE33AEA48EB5FE70E947E194B
:103480000F920F920F924DB75EB70F920E941D1BC5
:10349000E8E6F0E00E94641A4F915F91EF91FF918E
:1034A000E595EE1FFF1F49F0FE57E0684427EE0F39
:1034B000441FFA95E1F74195550B0E94971A0F901A
:1034C00007FE0C948B1A0895DF93CF931F930F93ED
:1034D000FF92EF92DF927B018C01689406C0DA2E96
:1034E000EF010E947B19FE01E894A5912591359189
:1034F00045915591A6F3EF010E94AF17FE01970188
:10350000A801DA9469F7DF90EF90FF900F911F9177
:10351000CF91DF9108959B01AC0160E070E080E8FD
:103520009FE30C9409180C9412190C94511B0E94DF
:103530004219D8F39923C9F3940F511DA3F3915065
:10354000504094F059F0882332F0660F771F881F9F
:1035500091505040C1F79E3F51052CF7880F911DA7
:103560009695879597F908955F3FACF0983E9CF04B
:10357000BB27869577956795B79508F4B1609395C5
:10358000C1F7BB0F58F711F460FFE8CF6F5F7F4FB3
:103590008F4F9F4FE3CF0C945D1916F00C94511B85
:1035A0000C94181968940C9412190E944219A8F3EB
:1035B0009923C1F3AEF3DF93CF931F930F93FF9241
:1035C000C92FDD2788232AF02197660F771F881FD0
:1035D000DAF720E030E040E85FEB9FE3883920F045
:1035E000803E38F021968F770E949817E0E9F0E04E
:1035F00004C00E949817EDEBF0E00E94641A8B0162
:10360000BE01EC01FB2E6F5771097595771F880B72
:10361000990B0E94B31828E132E741E35FE30E946F
:103620007B19AF2D9801AE01FF900F911F91CF91A3
:10363000DF910E94AF170C942919FA01DC01AA0F3F
:10364000BB1F9B01AC01BF5728F422273327442717
:10365000507820C0B75190F4AB2F00244695379591
:103660002795011CA395D2F3002071F0220F331F80
:10367000441FB395DAF30ED00C949717613071059F
:10368000A0E88A07B94630F49B01AC01662777278A
:1036900088279078309621F02083318342835383AA
:1036A00008959F3F31F0915020F487957795679565
:1036B000B795880F911D9695879597F90895A1E282
:1036C0001A2EAA1BBB1BFD010DC0AA1FBB1FEE1F9C
:1036D000FF1FA217B307E407F50720F0A21BB30BE7
:1036E000E40BF50B661F771F881F991F1A9469F763
:1036F00060957095809590959B01AC01BD01CF01BF
:103700000895EE0FFF1F0590F491E02D0994AEE0AF
:10371000B0E0EDE8FBE10C94361E0D891E8986E0D1
:103720008C831A8309838FEF9FE79E838D83AE017D
:10373000475E5F4F6F89788DCE0101960E94AA1B6C
:103740002F813885020F131FF80110822E96E4E0B6
:103750000C94521EABE0B0E0E0EBFBE10C94281EB1
:103760007C013B018A01FC0117821682838181FF63
:10377000C8C1CE0101965C01F7019381F30193FD6D
:10378000859193FF81913F01882309F453C18532CC
:1037900039F493FD859193FF81913F01853229F49E
:1037A000B70190E00E949A1DE7CF912C212C312C7B
:1037B000FFE1F31538F08B3211F190F4803209F10A
:1037C000833229F137FC3CC020ED280F2A3050F518
:1037D00036FE20C08AE0989E200D1124922E06C04D
:1037E0008D3291F0803371F7689430F8F30193FDD6
:1037F000859193FF81913F018111DACF21C06894B7
:1038000031F8689432F8F2CF689433F8EFCF6894C7
:1038100034F8ECCFEAE02E9E200D1124222E68947D
:1038200035F8E4CF8E3229F436FC04C1689436F8BA
:10383000DDCF8C3619F4689437F8D8CF8836B1F2DA
:10384000982F9F7D95549330E0F08336A1F1833714
:10385000C1F1833509F063C02801F2E04F0E511C1D
:10386000F801C080D180692D70E036FC02C06FEF96
:103870007FEFC6010E94841D4C01689437F88201D5
:103880000AC00C5F1F4FFFE3F98388248394912CB7
:103890006501E89437F833FE2DC0522C8114910451
:1038A00071F5552009F468CFB70180E290E00E94DD
:1038B0009A1D5A94F6CFF801808189830E5F1F4FBD
:1038C000E4CF2801F2E04F0E511CF801C080D180F6
:1038D000692D70E036FC02C06FEF7FEFC6010E94D9
:1038E0008F1D4C018201D5CFB70180E290E00E948C
:1038F0009A1D2A942814190409F0B0F7CECFF601C6
:1039000037FC859137FE81916F01B70190E00E94ED
:103910009A1D51105A94F1E08F1A9108BFCF843646
:1039200019F0893609F077C0F80137FE6BC0608165
:103930007181828193810C5F1F4FF32DFF763F2EA3
:1039400097FF09C090958095709561957F4F8F4F37
:103950009F4F689437F82AE030E0A5010E94CA1D05
:10396000C82ECA188C2C432C36FE0CC0E89440F8A4
:10397000C91440F434FE05C032FC03C0F32DFE7EB2
:103980004F2E892C44FE95C0FE01EC0DF11D808167
:10399000803309F087C0242D297E422E842D887023
:1039A000582E43FC95C040FE8FC09C2C821418F406
:1039B0002C0C922C981844FE91C0B70180E390E043
:1039C0000E949A1D42FE09C088E790E041FE02C0B5
:1039D00088E590E0B7010E949A1DC91408F48AC0D6
:1039E000CA94D12C9FEFC91AD90ACA0CDB1CF60164
:1039F00082916F01B70190E00E949A1DAC14BD0442
:103A0000B1F74FCF60817181072E000C880B990BA5
:103A10000E5F1F4F92CFD32CE894D4F82AE030E009
:103A2000853739F1232D297FD22E8F3601F148F4C5
:103A30008835A9F0F701868197812B96E2E10C94F5
:103A4000441E803749F08837A9F7D4FE02C0689435
:103A5000D2F820E130E00DC06894D4F8F6CF34FEFF
:103A600003C0822F8660D82E20E132E002C028E019
:103A700030E0F801D7FE0FC06081718182819381AF
:103A80000C5F1F4FA5010E94CA1DC82ECA183D2CED
:103A9000E89437F867CF6081718190E080E00E5F35
:103AA0001F4FF0CF42FC02C0839478CF839483945D
:103AB00075CF842D867809F471CFF6CFB70180E2F7
:103AC00090E00E949A1D83948214C0F3512C73CF0E
:103AD000522C5818821408F46ECFF8CF842D8678B3
:103AE00009F47BCF8BE241FE80E247FC8DE2B70117
:103AF00090E071CFB70180E390E00E949A1D9A9404
:103B00006CCF8FEF9FEF99CFFC0105906150704013
:103B10000110D8F7809590958E0F9F1F0895FC0196
:103B20006150704001900110D8F7809590958E0FEC
:103B30009F1F08950F931F93CF93DF93182F092F83
:103B4000EB018B8181FD09C01FEF0FEF812F902FBB
:103B5000DF91CF911F910F91089582FF14C02E81A4
:103B60003F818C819D81281739073CF4E881F981D8
:103B7000CF0101969983888310838E819F8101965E
:103B80009F838E83E3CFE885F985812F0995892B63
:103B9000A1F3DACFFA01AA27283051F1203181F1BF
:103BA000E8946F936E7F6E5F7F4F8F4F9F4FAF4F45
:103BB000B1E03ED0B4E03CD0670F781F891F9A1F58
:103BC000A11D680F791F8A1F911DA11D6A0F711D0C
:103BD000811D911DA11D20D009F468943F912AE018
:103BE000269F11243019305D3193DEF6CF01089500
:103BF000462F4770405D4193B3E00FD0C9F7F6CF31
:103C0000462F4F70405D4A3318F0495D31FD4052F8
:103C1000419302D0A9F7EACFB4E0A695979587958E
:103C200077956795BA95C9F700976105710508956D
:103C30009B01AC010A2E0694579547953795279519
:103C4000BA95C9F7620F731F841F951FA01D0895B1
:103C50002F923F924F925F926F927F928F929F929C
:103C6000AF92BF92CF92DF92EF92FF920F931F938A
:103C7000CF93DF93CDB7DEB7CA1BDB0B0FB6F8943B
:103C8000DEBF0FBECDBF09942A88398848885F847B
:103C90006E847D848C849B84AA84B984C884DF80EC
:103CA000EE80FD800C811B81AA81B981CE0FD11DD0
:103CB0000FB6F894DEBF0FBECDBFED010895F894A6
:023CC000FFCF34
:103CC20000000A1F1F0E040046030000240100002A
:103CD2000000FF00004200FFFFFFFFFFFF0A00009D
:103CE20000000000280100002C010000300100004B
:103CF20034010000380100003C01000040010000D6
:103D020044010000000000000080000000000000EC
:103D1200000000010000000000000000000100009F
:103D2200000000000000000200000000000000008F
:103D3200000200000000000000000003000000007C
:103D4200000000000002000000000000000001006E
:103D520004000000000000004206000037001400CA
:103D6200070030F830F830F830F830F830F8010059
:103D7200000000EB02D80C400143014D792053684A
:103D820061646520436F6E74726F6C6C65722100A2
:103D920054657374204661696C65642121212C206D
:103DA2006C696E653A313733200D0A00455F4F5317
:103DB2005F49442D00455F4F535F4C494D495400C4
:103DC200455F4F535F53544154452D004F53536544
:103DD200727669636549645F53657452656C416CC0
:103DE20061726D00455F4F535F504152414D5F50CC
:103DF2004F494E5445522D004F53536572766963B5
:103E02006549645F476574416C61726D00C205D497
:103E120002240108000900CF020100B90201008951
:103E220002030008016A044603BB02C302010073D5
:103E3200020100770203008F020100E8039D0201E4
:103E4200006400AB02010064008F029D02AB0243DA
:103E520006BB020000F2020000000000004B06BB9D
:103E620002000000030000000000005306BB020035
:103E7200002A03000000000000BB025B06FFFF01F6
:103E8200000100C7020400F20200032A033803D132
:103E9200025F0603E402F20200030E031C032A037C
:103EA2003803460358039A01480100020043158073
:103EB200FF0158039A0152010100006E070101023D
:103EC20058039A015C010200003206010102580304
:103ED2009A016601030000670502020158039A0174
:103EE2007001040000930502020158039A017A014D
:103EF2000500003005037F01540398018401060187
:103F020000BF0502020158039A018E0107030064F3
:103F120012000001C3058000000000004F70656EB2
:103F2200696E67204561737420626C696E64730008
:103F32004F70656E6564204561737420626C696EB2
:103F4200647300436F6E7472616374696E672045B7
:103F520061737420626C696E647300436F6E747275
:103F62006163746564204561737420626C696E6478
:103F720073004F70656E696E6720576573742062B7
:103F82006C696E6473004F70656E6564205765736B
:103F92007420626C696E647300436F6E7472616345
:103FA20074696E67205765737420626C696E6473FE
:103FB200004F4646004F4E20004C5558203A2025CF
:103FC2003364572025336441202533644500534828
:103FD200414445203A20572D257320452D25730055
:103FE2004C49474854203A20572D257320452D250A
:103FF2007300434C4F434B203A20253032643A251C
:104002003032643A2530326425004561737420529F
:10401200415720646174613A0045617374206461A0
:1040220074613A0057657374205241572064617479
:10403200613A005765737420646174613A00417695
:10404200672065617374206C75783A200041766749
:104052002077657374206C75783A200000000000A8
:104062009A0BD80C3B0B7A0B0D0B270B190B6E61BD
:0A4072006E00696E66006F7666004E
:00000001FF
